{
 "cells": [
  {
   "cell_type": "markdown",
   "id": "ffef41a1",
   "metadata": {},
   "source": [
    "# Creating the Initial Commitment Transaction\n",
    "\n",
    "In this section, we'll build a lightning channel initial commitment transaction from scratch using Python. We'll walk through each part of the transaction — how it's constructed and signed. The process will be tested using Bitcoin Core in regtest mode."
   ]
  },
  {
   "cell_type": "markdown",
   "id": "181c255d",
   "metadata": {},
   "source": [
    "## Setup\n",
    "\n",
    "For this notebook, we’ll use the basepoints derivated in the `chapter 0 - lightning node keys derivation`, and the funding transaction created in the `chapter 1 - channel funding transaction`."
   ]
  },
  {
   "cell_type": "code",
   "execution_count": 1,
   "id": "6cc23033",
   "metadata": {},
   "outputs": [
    {
     "name": "stdout",
     "output_type": "stream",
     "text": [
      "Alice Per Commitment Seed 34b581ec20bf2c6cae3d4d4dcbfddc8a3727a1e9a57c55f3520e770607898c06\n",
      "Bob Per Commitment Seed 89c994b3ddad4698acee71e42d8bcace48eea739caaba371eb110e77663ec56d\n",
      "Alice Revocation Basepoint Private Key: c17ac3952ca414190074d1e59ea03fbae253196173908dc8b131af6bd2cc8161\n",
      "Alice Revocation Basepoint Public Key: 03649c4f865bec74b0a186deef4defad51cfdc141443e38074ea05a7835a953a49\n",
      "Alice HTLC Basepoint Private Key: 763ae49a20e6668c88602c782716dd83ba6c4cc0333b38810e2bcd7b22c871ac\n",
      "Alice HTLC Basepoint Public Key: 02816fde4150e4dfcac94eff0b821448fb70f57a56148ba2206cd9b2fd0cc20bdf\n",
      "Alice Payment Basepoint Private Key: 72d8c12971b58076a1f27eb7938ca442f0b210762b23637443ac2e99dac352a6\n",
      "Alice Payment Basepoint Public Key: 025f892a06124391e2f38ce35d943cdc09f63e203330dbd9cb6113a903e0738458\n",
      "Alice Delayed Payment Basepoint Private Key: 7cafce00c54e7241894dcc7c3beaca29dd354139fdb6182198d6c5f1063bfe8d\n",
      "Alice Delayed Payment Basepoint Public Key: 034aa35219136bb238e072341b20a4bf8fb44a83cdb73dd2bd973c123ac2dfd7ff\n",
      "Bob Revocation Basepoint Private Key: fa526e09b9ff7425552db1803d7e12cf4475d060db4cfb812adb07219a54baa0\n",
      "Bob Revocation Basepoint Public Key: 02536407aada57068f30b53c4126062d235967c3636147433e72b21ff93c8acdbf\n",
      "Bob HTLC Basepoint Private Key: 06d61bb059eef194a3d223992a028fbd31f2e8b289d5a10acd343671c9322155\n",
      "Bob HTLC Basepoint Public Key: 0306b11436efa058a86f997df6596ea4579241f3909175772d77df38a5255f52f4\n",
      "Bob Payment Basepoint Private Key: 5046024e716c479599350b7aee8139304d942360733d8dd79793917f9e33a334\n",
      "Bob Payment Basepoint Public Key: 02f98efd3f2b2fbe7bd83c419f5f64f8280798b8a9175fdb77c0091bbb95c79506\n",
      "Bob Delayed Payment Basepoint Private Key: d764d4c083cac97d34913bdf123c3dfef5379db9e9b0652897783e0d01880bb3\n",
      "Bob Delayed Payment Basepoint Public Key: 032a5869ac5eb30ba1e9c9addd3740822dac6f45a8de9b3d4e171f14c3abce2dae\n",
      "To obscure commitment number 0xb433fd43a66f\n",
      "2025-09-18T03:46:00.116000Z TestFramework (INFO): PRNG seed is: 4836527677839225816\n",
      "2025-09-18T03:46:00.117000Z TestFramework (INFO): Initializing test directory /tmp/bitcoin_func_test_ewysq1q_\n",
      "Alice funding pubkey: f4a6fd5c8a0a7fefa7c79a142e1238b2296b902a5ddfadd0de43f2319f09e6ef\n",
      "Alice funding privkey: 2b433a6f27744712395f2f695a95e8b15951c66cf78e91c4c573ca0e9084726f\n",
      "Alice funding address: bcrt1p7jn06hy2pfl7lf78ng2zuy3ckg5khyp2th06m5x7g0err8cfumhskunvhe\n",
      "Bob funding pubkey: fbcdfdb85ae304effb2cc0952c894d100f6c1430cacb0849180dda71f99e4876\n",
      "Bob funding privkey: cf35342b8a7087c84a68650d99bd4f2a8b45d562c30d4a432af6cb7bfebf1c4e\n",
      "Bob funding address: bcrt1pl0xlmwz6uvzwl7evcz2jez2dzq8kc9pset9ssjgcphd8r7v7fpmq7cejvw\n",
      "Transaction creating Alice UTXO: 5293b724b72d8b1949174e5147180352764e744d98badbc79c577e120aacf247\n",
      "{\n",
      "  \"txid\": \"5293b724b72d8b1949174e5147180352764e744d98badbc79c577e120aacf247\",\n",
      "  \"hash\": \"9730b9f0b6e0517e90357d8c7faead8feb0d02e6b359f7de8c1e39b4adf22fa8\",\n",
      "  \"version\": 2,\n",
      "  \"size\": 289,\n",
      "  \"vsize\": 208,\n",
      "  \"weight\": 829,\n",
      "  \"locktime\": 101,\n",
      "  \"vin\": [\n",
      "    {\n",
      "      \"txid\": \"f888ab9a50a8bb317b9d2efc17a9b4263e67517bb8303540fd5d875edfcce99c\",\n",
      "      \"vout\": 0,\n",
      "      \"scriptSig\": {\n",
      "        \"asm\": \"\",\n",
      "        \"hex\": \"\"\n",
      "      },\n",
      "      \"txinwitness\": [\n",
      "        \"304402207d3c56372f6eb2145e04008170ec0ff8b996c635e71baa887add39b4bb821bfc02207283185be4b95c6f2f7fdc0d72678f35f01d61b4f511f9147ea1f799baea1e8401\",\n",
      "        \"03bccaa0730103870f617c1eae270fcc6a0715f645836337124eda8e5e9df129aa\"\n",
      "      ],\n",
      "      \"sequence\": 4294967293\n",
      "    }\n",
      "  ],\n",
      "  \"vout\": [\n",
      "    {\n",
      "      \"value\": \"1.00000000\",\n",
      "      \"n\": 0,\n",
      "      \"scriptPubKey\": {\n",
      "        \"asm\": \"1 fbcdfdb85ae304effb2cc0952c894d100f6c1430cacb0849180dda71f99e4876\",\n",
      "        \"desc\": \"rawtr(fbcdfdb85ae304effb2cc0952c894d100f6c1430cacb0849180dda71f99e4876)#jqnvenlz\",\n",
      "        \"hex\": \"5120fbcdfdb85ae304effb2cc0952c894d100f6c1430cacb0849180dda71f99e4876\",\n",
      "        \"address\": \"bcrt1pl0xlmwz6uvzwl7evcz2jez2dzq8kc9pset9ssjgcphd8r7v7fpmq7cejvw\",\n",
      "        \"type\": \"witness_v1_taproot\"\n",
      "      }\n",
      "    },\n",
      "    {\n",
      "      \"value\": \"47.99995840\",\n",
      "      \"n\": 1,\n",
      "      \"scriptPubKey\": {\n",
      "        \"asm\": \"1 125b258616f14258fe0ed3cb9bfa306074ea75827ebfe447c146de93d474266f\",\n",
      "        \"desc\": \"rawtr(125b258616f14258fe0ed3cb9bfa306074ea75827ebfe447c146de93d474266f)#72gkzz9a\",\n",
      "        \"hex\": \"5120125b258616f14258fe0ed3cb9bfa306074ea75827ebfe447c146de93d474266f\",\n",
      "        \"address\": \"bcrt1pzfdjtpsk79p93lsw609eh73svp6w5avz06l7g37pgm0f84r5yehspavmn5\",\n",
      "        \"type\": \"witness_v1_taproot\"\n",
      "      }\n",
      "    },\n",
      "    {\n",
      "      \"value\": \"1.00000000\",\n",
      "      \"n\": 2,\n",
      "      \"scriptPubKey\": {\n",
      "        \"asm\": \"1 f4a6fd5c8a0a7fefa7c79a142e1238b2296b902a5ddfadd0de43f2319f09e6ef\",\n",
      "        \"desc\": \"rawtr(f4a6fd5c8a0a7fefa7c79a142e1238b2296b902a5ddfadd0de43f2319f09e6ef)#2rnd2s3v\",\n",
      "        \"hex\": \"5120f4a6fd5c8a0a7fefa7c79a142e1238b2296b902a5ddfadd0de43f2319f09e6ef\",\n",
      "        \"address\": \"bcrt1p7jn06hy2pfl7lf78ng2zuy3ckg5khyp2th06m5x7g0err8cfumhskunvhe\",\n",
      "        \"type\": \"witness_v1_taproot\"\n",
      "      }\n",
      "    }\n",
      "  ],\n",
      "  \"hex\": \"020000000001019ce9ccdf5e875dfd403530b87b51673e26b4a917fc2e9d7b31bba8509aab88f80000000000fdffffff0300e1f50500000000225120fbcdfdb85ae304effb2cc0952c894d100f6c1430cacb0849180dda71f99e4876c01f1a1e01000000225120125b258616f14258fe0ed3cb9bfa306074ea75827ebfe447c146de93d474266f00e1f50500000000225120f4a6fd5c8a0a7fefa7c79a142e1238b2296b902a5ddfadd0de43f2319f09e6ef0247304402207d3c56372f6eb2145e04008170ec0ff8b996c635e71baa887add39b4bb821bfc02207283185be4b95c6f2f7fdc0d72678f35f01d61b4f511f9147ea1f799baea1e84012103bccaa0730103870f617c1eae270fcc6a0715f645836337124eda8e5e9df129aa65000000\"\n",
      "}\n",
      "Alice transaction to spend: 5293b724b72d8b1949174e5147180352764e744d98badbc79c577e120aacf247:2\n",
      "Alice funding pubkey: 8deb46ca64c647866ef509ee7396f468af419efd22b80c61d1739c29d24d9e8d\n",
      "Alice funding privkey: 5cc4cd2e6d85bff34365d61669f9b57a959d30ea437fe8ba42b936f3ea677758\n",
      "Alice funding address: bcrt1p3h45djnycercvmh4p8h889h5dzh5r8hay2uqccw3wwwzn5jdn6xshmpkm4\n",
      "Alice MuSig2 pubkey: 021e0a59c0c567d8e498e01336c20410528bbcfbd676f33e5d106208596dfd72a8\n",
      "Alice MuSig2 privkey: 6aaf7cf76d86dae1604af381183c7f0c61122723cde757cba0b0b21188ff14f0\n",
      "Bob MuSig2 pubkey: 028ea94f3f4b8f308e1967c70e5affe4563b7492bf2d6e39d993171bd840204fee\n",
      "Bob MuSig2 privkey: fc388bcfc5fe977c3ab592351a926d6871d0e3300597551a3618a1e3f6bcf099\n",
      "Aggregate musig2 pubkey: 8647892137fffa6b0a460eefeaddeb11270102547e9daf42442ab63add190cfe\n",
      "Channel funding musig2 output address: bcrt1psercjgfhllaxkzjxpmh74h0tzynszqj506w67sjy92mr4hgepnlqvh60g3\n",
      "unsigned_tx:  020000000147f2ac0a127e579cc7dbba984d744e7652031847514e1749198b2db724b793520200000000ffffffff0240420f00000000002251208647892137fffa6b0a460eefeaddeb11270102547e9daf42442ab63add190cfe949de605000000002251208deb46ca64c647866ef509ee7396f468af419efd22b80c61d1739c29d24d9e8d00000000\n",
      "{\n",
      "  \"txid\": \"a4492b728a9c6119f1d292759e0418b288f6d3ea0a851415bad0b3d7413ee236\",\n",
      "  \"hash\": \"a4492b728a9c6119f1d292759e0418b288f6d3ea0a851415bad0b3d7413ee236\",\n",
      "  \"version\": 2,\n",
      "  \"size\": 137,\n",
      "  \"vsize\": 137,\n",
      "  \"weight\": 548,\n",
      "  \"locktime\": 0,\n",
      "  \"vin\": [\n",
      "    {\n",
      "      \"txid\": \"5293b724b72d8b1949174e5147180352764e744d98badbc79c577e120aacf247\",\n",
      "      \"vout\": 2,\n",
      "      \"scriptSig\": {\n",
      "        \"asm\": \"\",\n",
      "        \"hex\": \"\"\n",
      "      },\n",
      "      \"sequence\": 4294967295\n",
      "    }\n",
      "  ],\n",
      "  \"vout\": [\n",
      "    {\n",
      "      \"value\": \"0.01000000\",\n",
      "      \"n\": 0,\n",
      "      \"scriptPubKey\": {\n",
      "        \"asm\": \"1 8647892137fffa6b0a460eefeaddeb11270102547e9daf42442ab63add190cfe\",\n",
      "        \"desc\": \"rawtr(8647892137fffa6b0a460eefeaddeb11270102547e9daf42442ab63add190cfe)#llgwhsf0\",\n",
      "        \"hex\": \"51208647892137fffa6b0a460eefeaddeb11270102547e9daf42442ab63add190cfe\",\n",
      "        \"address\": \"bcrt1psercjgfhllaxkzjxpmh74h0tzynszqj506w67sjy92mr4hgepnlqvh60g3\",\n",
      "        \"type\": \"witness_v1_taproot\"\n",
      "      }\n",
      "    },\n",
      "    {\n",
      "      \"value\": \"0.98999700\",\n",
      "      \"n\": 1,\n",
      "      \"scriptPubKey\": {\n",
      "        \"asm\": \"1 8deb46ca64c647866ef509ee7396f468af419efd22b80c61d1739c29d24d9e8d\",\n",
      "        \"desc\": \"rawtr(8deb46ca64c647866ef509ee7396f468af419efd22b80c61d1739c29d24d9e8d)#echtxvj5\",\n",
      "        \"hex\": \"51208deb46ca64c647866ef509ee7396f468af419efd22b80c61d1739c29d24d9e8d\",\n",
      "        \"address\": \"bcrt1p3h45djnycercvmh4p8h889h5dzh5r8hay2uqccw3wwwzn5jdn6xshmpkm4\",\n",
      "        \"type\": \"witness_v1_taproot\"\n",
      "      }\n",
      "    }\n",
      "  ]\n",
      "}\n",
      "signed tx:  0200000000010147f2ac0a127e579cc7dbba984d744e7652031847514e1749198b2db724b793520200000000ffffffff0240420f00000000002251208647892137fffa6b0a460eefeaddeb11270102547e9daf42442ab63add190cfe949de605000000002251208deb46ca64c647866ef509ee7396f468af419efd22b80c61d1739c29d24d9e8d014071e5550eee200b6bc2cb1ad963e7aa53f0359eb102d8d6b39526bd8b5e2a50a62ed0deb5f29dedf06bd849d51850075617c8d72ec5ed776ed8f6d05ab8c87c7f00000000\n",
      "{\n",
      "  \"txid\": \"a4492b728a9c6119f1d292759e0418b288f6d3ea0a851415bad0b3d7413ee236\",\n",
      "  \"hash\": \"48f1b0248df3546d9aa19cda2fe9528e9c099614767185963cf80304c6618ab3\",\n",
      "  \"version\": 2,\n",
      "  \"size\": 205,\n",
      "  \"vsize\": 154,\n",
      "  \"weight\": 616,\n",
      "  \"locktime\": 0,\n",
      "  \"vin\": [\n",
      "    {\n",
      "      \"txid\": \"5293b724b72d8b1949174e5147180352764e744d98badbc79c577e120aacf247\",\n",
      "      \"vout\": 2,\n",
      "      \"scriptSig\": {\n",
      "        \"asm\": \"\",\n",
      "        \"hex\": \"\"\n",
      "      },\n",
      "      \"txinwitness\": [\n",
      "        \"71e5550eee200b6bc2cb1ad963e7aa53f0359eb102d8d6b39526bd8b5e2a50a62ed0deb5f29dedf06bd849d51850075617c8d72ec5ed776ed8f6d05ab8c87c7f\"\n",
      "      ],\n",
      "      \"sequence\": 4294967295\n",
      "    }\n",
      "  ],\n",
      "  \"vout\": [\n",
      "    {\n",
      "      \"value\": \"0.01000000\",\n",
      "      \"n\": 0,\n",
      "      \"scriptPubKey\": {\n",
      "        \"asm\": \"1 8647892137fffa6b0a460eefeaddeb11270102547e9daf42442ab63add190cfe\",\n",
      "        \"desc\": \"rawtr(8647892137fffa6b0a460eefeaddeb11270102547e9daf42442ab63add190cfe)#llgwhsf0\",\n",
      "        \"hex\": \"51208647892137fffa6b0a460eefeaddeb11270102547e9daf42442ab63add190cfe\",\n",
      "        \"address\": \"bcrt1psercjgfhllaxkzjxpmh74h0tzynszqj506w67sjy92mr4hgepnlqvh60g3\",\n",
      "        \"type\": \"witness_v1_taproot\"\n",
      "      }\n",
      "    },\n",
      "    {\n",
      "      \"value\": \"0.98999700\",\n",
      "      \"n\": 1,\n",
      "      \"scriptPubKey\": {\n",
      "        \"asm\": \"1 8deb46ca64c647866ef509ee7396f468af419efd22b80c61d1739c29d24d9e8d\",\n",
      "        \"desc\": \"rawtr(8deb46ca64c647866ef509ee7396f468af419efd22b80c61d1739c29d24d9e8d)#echtxvj5\",\n",
      "        \"hex\": \"51208deb46ca64c647866ef509ee7396f468af419efd22b80c61d1739c29d24d9e8d\",\n",
      "        \"address\": \"bcrt1p3h45djnycercvmh4p8h889h5dzh5r8hay2uqccw3wwwzn5jdn6xshmpkm4\",\n",
      "        \"type\": \"witness_v1_taproot\"\n",
      "      }\n",
      "    }\n",
      "  ]\n",
      "}\n",
      "funding_channel_txid:  a4492b728a9c6119f1d292759e0418b288f6d3ea0a851415bad0b3d7413ee236\n"
     ]
    }
   ],
   "source": [
    "# run notebook\n",
    "%run \"/home/pins-dev/Projects/Taproot-Lightning-Channels-Workshop/chapter 0 - lightning node keys derivation/lightning node keys derivation.ipynb\"\n",
    "%run \"/home/pins-dev/Projects/Taproot-Lightning-Channels-Workshop/chapter 1 - channel funding transaction/funding-transaction.ipynb\""
   ]
  },
  {
   "cell_type": "markdown",
   "id": "f6cdc5bb",
   "metadata": {},
   "source": [
    "At this point, no HTLCs have been added yet, which makes the initial commitment transaction simpler. Only after Alice has a fully signed initial commitment transaction she will broadcast the funding transaction, this serves as a guarantee for Alice (the funder) that she can reclaim her sats back if anything goes wrong."
   ]
  },
  {
   "cell_type": "markdown",
   "id": "2fbca388",
   "metadata": {},
   "source": [
    "### The Unsigned Transaction Inputs"
   ]
  },
  {
   "cell_type": "code",
   "execution_count": 2,
   "id": "dccafa64",
   "metadata": {},
   "outputs": [],
   "source": [
    "# VERSION\n",
    "# version '2' indicates that we may use relative timelocks (BIP68)\n",
    "version = bytes.fromhex(\"0200 0000\")\n",
    "\n",
    "# MARKER (new to segwit)\n",
    "marker = bytes.fromhex(\"00\")\n",
    "\n",
    "# FLAG (new to segwit)\n",
    "flag = bytes.fromhex(\"01\")\n",
    "\n",
    "# INPUTS\n",
    "# We have just 1 input\n",
    "input_count = bytes.fromhex(\"01\")\n",
    "\n",
    "# Convert txid and index to bytes (little endian)\n",
    "txid = (bytes.fromhex(funding_channel_txid))[::-1]\n",
    "funding_channel_index = 0\n",
    "index = funding_channel_index.to_bytes(4, byteorder=\"little\", signed=False)\n",
    "\n",
    "# For the unsigned transaction we use an empty scriptSig\n",
    "scriptsig = bytes.fromhex(\"\")\n",
    "\n",
    "# sequence: upper 8 bits are 0x80, lower 24 bits are the upper 24 bits of the obscured commitment number\n",
    "# Commitment number on the opening channel \n",
    "commitment_number = 0\n",
    "# obscured commitment number is result of xor operation \n",
    "commitment_number_obscured = lower48_to_obscure ^ commitment_number\n",
    "# Extract the upper 24 bits of the obscured commitment number\n",
    "upper_24_bits = (commitment_number_obscured >> 24) & 0xFFFFFF\n",
    "# Combine the upper 8 bits (0x80) with the lower 24 bits (upper 24 of obscured number)\n",
    "sequence = (0x80 << 24) | upper_24_bits\n",
    "# Convert to bytes (byte, big-endian)\n",
    "sequence = sequence.to_bytes(4, byteorder='big')\n",
    "# Convert to little-endian \n",
    "sequence = sequence[::-1]\n",
    "\n",
    "inputs = (\n",
    "    txid\n",
    "    + index\n",
    "    + varint_len(scriptsig)\n",
    "    + scriptsig\n",
    "    + sequence\n",
    ")"
   ]
  },
  {
   "cell_type": "code",
   "execution_count": null,
   "id": "c8acb94c",
   "metadata": {},
   "outputs": [],
   "source": [
    "# create an object for Alice’s first per-commitment\n",
    "alice_per_commitment = PerCommitmentKey(alice_per_commitment_seed, 0xFFFFFFFFFFFF)\n",
    "\n",
    "print(f\"Alice First Per Commitment Point: {alice_per_commitment.get_compressed().hex()}\")"
   ]
  }
 ],
 "metadata": {
  "kernelspec": {
   "display_name": "Python 3 (ipykernel)",
   "language": "python",
   "name": "python3"
  },
  "language_info": {
   "codemirror_mode": {
    "name": "ipython",
    "version": 3
   },
   "file_extension": ".py",
   "mimetype": "text/x-python",
   "name": "python",
   "nbconvert_exporter": "python",
   "pygments_lexer": "ipython3",
   "version": "3.12.3"
  }
 },
 "nbformat": 4,
 "nbformat_minor": 5
}
