{
 "cells": [
  {
   "cell_type": "markdown",
   "id": "9fc50808",
   "metadata": {},
   "source": [
    "# Creating the Commitment Transaction with in-flight htlc\n",
    "\n",
    "In this section, we'll build a lightning channel commitment transaction with in-flight htlc from scratch using Python. We'll walk through each part of the transaction — how it's constructed and signed. The process will be tested using Bitcoin Core in regtest mode."
   ]
  },
  {
   "cell_type": "markdown",
   "id": "40261109",
   "metadata": {},
   "source": [
    "## Setup\n",
    "\n",
    "For this notebook, we’ll use the basepoints derivated in the `chapter 0 - lightning node keys derivation` the funding transaction created in the `chapter 1 - channel funding transaction` and parts of the first commitment transaction created in the `chapter 2 - initial commitment transaction`."
   ]
  },
  {
   "cell_type": "code",
   "execution_count": 1,
   "id": "8593a9a2",
   "metadata": {
    "vscode": {
     "languageId": "plaintext"
    }
   },
   "outputs": [
    {
     "name": "stdout",
     "output_type": "stream",
     "text": [
      "2025-09-25T19:53:55.616000Z TestFramework (INFO): PRNG seed is: 6183810789571658583\n",
      "2025-09-25T19:53:55.617000Z TestFramework (INFO): Initializing test directory /tmp/bitcoin_func_test_vlvpye9s\n",
      "Alice Per Commitment Seed 34b581ec20bf2c6cae3d4d4dcbfddc8a3727a1e9a57c55f3520e770607898c06\n",
      "Bob Per Commitment Seed 89c994b3ddad4698acee71e42d8bcace48eea739caaba371eb110e77663ec56d\n",
      "Alice Payment BasePoint:  025f892a06124391e2f38ce35d943cdc09f63e203330dbd9cb6113a903e0738458\n",
      "Bob Payment BasePoint:  02f98efd3f2b2fbe7bd83c419f5f64f8280798b8a9175fdb77c0091bbb95c79506\n",
      "To obscure commitment number 0xb433fd43a66f\n",
      "Alice funding pubkey: cd17635b908b952ca4cdaadc273a7795c929922c39ccc2677b5089274fe7f3c1\n",
      "Alice funding privkey: e0c721280faae50c905e296c3e02e5eda49b42d5c5eb39024f411a54b0a7063d\n",
      "Alice funding address: bcrt1pe5tkxkus3w2jefxd4twzwwnhjhyjny3v88xvyemm2zyjwnl870qsyeeqxk\n",
      "Bob funding pubkey: 48e4418d18e9188008f98592bdc4a4c6d71261b11e07262a184014e8aa0a8d19\n",
      "Bob funding privkey: 3acd5bf43be33ca167b2992870efb86422a35abc55a34ff015942f268f11b372\n",
      "Bob funding address: bcrt1pfrjyrrgcayvgqz8eskftm39ycmt3ycd3rcrjv2scgq2w32s235vsqkz8en\n",
      "Transaction creating Alice UTXO: db71c69f98a2eaa3b4e4e010d7342adf05128167e152b50641e2a5a1bd86a38d\n",
      "{\n",
      "  \"txid\": \"db71c69f98a2eaa3b4e4e010d7342adf05128167e152b50641e2a5a1bd86a38d\",\n",
      "  \"hash\": \"00cc9adedd6158fcd6d3349c8cb32de9637b8274232874d8fdb7425558d060ef\",\n",
      "  \"version\": 2,\n",
      "  \"size\": 289,\n",
      "  \"vsize\": 208,\n",
      "  \"weight\": 829,\n",
      "  \"locktime\": 101,\n",
      "  \"vin\": [\n",
      "    {\n",
      "      \"txid\": \"78865790b272dff18867c76eae74c447a59921736d6d603b2ada07901163e54d\",\n",
      "      \"vout\": 0,\n",
      "      \"scriptSig\": {\n",
      "        \"asm\": \"\",\n",
      "        \"hex\": \"\"\n",
      "      },\n",
      "      \"txinwitness\": [\n",
      "        \"304402200ef4c053b66ded76ab4dc21f124a1732db05a6f17a4b0592d24f648ef779e54a02200b033445d3d4ee5e6841a4424a93388fdf29e0f1e5122941db22970493f84f7801\",\n",
      "        \"02051aef713adeed3e51bcfd634cae6aaf0d63401037c967383eeaea11c6981c63\"\n",
      "      ],\n",
      "      \"sequence\": 4294967293\n",
      "    }\n",
      "  ],\n",
      "  \"vout\": [\n",
      "    {\n",
      "      \"value\": \"1.00000000\",\n",
      "      \"n\": 0,\n",
      "      \"scriptPubKey\": {\n",
      "        \"asm\": \"1 48e4418d18e9188008f98592bdc4a4c6d71261b11e07262a184014e8aa0a8d19\",\n",
      "        \"desc\": \"rawtr(48e4418d18e9188008f98592bdc4a4c6d71261b11e07262a184014e8aa0a8d19)#ezrg7sgw\",\n",
      "        \"hex\": \"512048e4418d18e9188008f98592bdc4a4c6d71261b11e07262a184014e8aa0a8d19\",\n",
      "        \"address\": \"bcrt1pfrjyrrgcayvgqz8eskftm39ycmt3ycd3rcrjv2scgq2w32s235vsqkz8en\",\n",
      "        \"type\": \"witness_v1_taproot\"\n",
      "      }\n",
      "    },\n",
      "    {\n",
      "      \"value\": \"47.99995840\",\n",
      "      \"n\": 1,\n",
      "      \"scriptPubKey\": {\n",
      "        \"asm\": \"1 9c7929947dcbdb6e553b2b4c24117f8b63bccd9ddb328d9a21ab1b63f70edbd4\",\n",
      "        \"desc\": \"rawtr(9c7929947dcbdb6e553b2b4c24117f8b63bccd9ddb328d9a21ab1b63f70edbd4)#45pyfe25\",\n",
      "        \"hex\": \"51209c7929947dcbdb6e553b2b4c24117f8b63bccd9ddb328d9a21ab1b63f70edbd4\",\n",
      "        \"address\": \"bcrt1pn3ujn9rae0dku4fm9dxzgytl3d3menvamvegmx3p4vdk8acwm02qhgsz57\",\n",
      "        \"type\": \"witness_v1_taproot\"\n",
      "      }\n",
      "    },\n",
      "    {\n",
      "      \"value\": \"1.00000000\",\n",
      "      \"n\": 2,\n",
      "      \"scriptPubKey\": {\n",
      "        \"asm\": \"1 cd17635b908b952ca4cdaadc273a7795c929922c39ccc2677b5089274fe7f3c1\",\n",
      "        \"desc\": \"rawtr(cd17635b908b952ca4cdaadc273a7795c929922c39ccc2677b5089274fe7f3c1)#fhl5msz5\",\n",
      "        \"hex\": \"5120cd17635b908b952ca4cdaadc273a7795c929922c39ccc2677b5089274fe7f3c1\",\n",
      "        \"address\": \"bcrt1pe5tkxkus3w2jefxd4twzwwnhjhyjny3v88xvyemm2zyjwnl870qsyeeqxk\",\n",
      "        \"type\": \"witness_v1_taproot\"\n",
      "      }\n",
      "    }\n",
      "  ],\n",
      "  \"hex\": \"020000000001014de563119007da2a3b606d6d732199a547c474ae6ec76788f1df72b2905786780000000000fdffffff0300e1f5050000000022512048e4418d18e9188008f98592bdc4a4c6d71261b11e07262a184014e8aa0a8d19c01f1a1e010000002251209c7929947dcbdb6e553b2b4c24117f8b63bccd9ddb328d9a21ab1b63f70edbd400e1f50500000000225120cd17635b908b952ca4cdaadc273a7795c929922c39ccc2677b5089274fe7f3c10247304402200ef4c053b66ded76ab4dc21f124a1732db05a6f17a4b0592d24f648ef779e54a02200b033445d3d4ee5e6841a4424a93388fdf29e0f1e5122941db22970493f84f78012102051aef713adeed3e51bcfd634cae6aaf0d63401037c967383eeaea11c6981c6365000000\"\n",
      "}\n",
      "Alice transaction to spend: db71c69f98a2eaa3b4e4e010d7342adf05128167e152b50641e2a5a1bd86a38d:2\n",
      "Alice funding pubkey: 6ab489024db00de8dcd793207b0ba827af58c30fdcbade870655ed0194bd7d6f\n",
      "Alice funding privkey: 7d7bc17a45257cf40415f9758221f4a07a637d7c9879ad045152b11e2f6e895d\n",
      "Alice funding address: bcrt1pd26gjqjdkqx73hxhjvs8kzagy7h43sc0mjadapcx2hksr99a04hsdmcrz6\n",
      "Alice MuSig2 pubkey: a609c26bc72814cd442e395d98a4bd9b0258c1c6b09f8a2db58d84eb8718f35f\n",
      "Alice MuSig2 privkey: f01c7d5b184c3418b9ac313ca71b3bd2ec95cbba2c626451808e389c237f4f6b\n",
      "Bob MuSig2 pubkey: 1bf524f5957b58158c39ea70aef193fab510f2baa6c16680dca106cf8f17c2b3\n",
      "Bob MuSig2 privkey: fad3388ef502482092977d9722af4a516f7bf7793549f790204bd83b06c77f6e\n",
      "Aggregate musig2 pubkey: 8357b1feaa6bb9a08c921783887ba4e4bb2c2888f33c28ad8447877ba75060d4\n",
      "Channel funding musig2 output address: bcrt1psdtmrl42dwu6pryjz7pcs7ayujajc2yg7v7z3tvyg7rhhf6svr2qyal6nf\n",
      "unsigned_tx:  02000000018da386bda1a5e24106b552e167811205df2a34d710e0e4b4a3eaa2989fc671db0200000000ffffffff0240420f00000000002251208357b1feaa6bb9a08c921783887ba4e4bb2c2888f33c28ad8447877ba75060d4949de605000000002251206ab489024db00de8dcd793207b0ba827af58c30fdcbade870655ed0194bd7d6f00000000\n",
      "{\n",
      "  \"txid\": \"76814caf5d920931111c9f627890f9e3ae71e38e36d3343aa52b96586986b535\",\n",
      "  \"hash\": \"76814caf5d920931111c9f627890f9e3ae71e38e36d3343aa52b96586986b535\",\n",
      "  \"version\": 2,\n",
      "  \"size\": 137,\n",
      "  \"vsize\": 137,\n",
      "  \"weight\": 548,\n",
      "  \"locktime\": 0,\n",
      "  \"vin\": [\n",
      "    {\n",
      "      \"txid\": \"db71c69f98a2eaa3b4e4e010d7342adf05128167e152b50641e2a5a1bd86a38d\",\n",
      "      \"vout\": 2,\n",
      "      \"scriptSig\": {\n",
      "        \"asm\": \"\",\n",
      "        \"hex\": \"\"\n",
      "      },\n",
      "      \"sequence\": 4294967295\n",
      "    }\n",
      "  ],\n",
      "  \"vout\": [\n",
      "    {\n",
      "      \"value\": \"0.01000000\",\n",
      "      \"n\": 0,\n",
      "      \"scriptPubKey\": {\n",
      "        \"asm\": \"1 8357b1feaa6bb9a08c921783887ba4e4bb2c2888f33c28ad8447877ba75060d4\",\n",
      "        \"desc\": \"rawtr(8357b1feaa6bb9a08c921783887ba4e4bb2c2888f33c28ad8447877ba75060d4)#705f289j\",\n",
      "        \"hex\": \"51208357b1feaa6bb9a08c921783887ba4e4bb2c2888f33c28ad8447877ba75060d4\",\n",
      "        \"address\": \"bcrt1psdtmrl42dwu6pryjz7pcs7ayujajc2yg7v7z3tvyg7rhhf6svr2qyal6nf\",\n",
      "        \"type\": \"witness_v1_taproot\"\n",
      "      }\n",
      "    },\n",
      "    {\n",
      "      \"value\": \"0.98999700\",\n",
      "      \"n\": 1,\n",
      "      \"scriptPubKey\": {\n",
      "        \"asm\": \"1 6ab489024db00de8dcd793207b0ba827af58c30fdcbade870655ed0194bd7d6f\",\n",
      "        \"desc\": \"rawtr(6ab489024db00de8dcd793207b0ba827af58c30fdcbade870655ed0194bd7d6f)#9qmp8dtx\",\n",
      "        \"hex\": \"51206ab489024db00de8dcd793207b0ba827af58c30fdcbade870655ed0194bd7d6f\",\n",
      "        \"address\": \"bcrt1pd26gjqjdkqx73hxhjvs8kzagy7h43sc0mjadapcx2hksr99a04hsdmcrz6\",\n",
      "        \"type\": \"witness_v1_taproot\"\n",
      "      }\n",
      "    }\n",
      "  ]\n",
      "}\n",
      "signed tx:  020000000001018da386bda1a5e24106b552e167811205df2a34d710e0e4b4a3eaa2989fc671db0200000000ffffffff0240420f00000000002251208357b1feaa6bb9a08c921783887ba4e4bb2c2888f33c28ad8447877ba75060d4949de605000000002251206ab489024db00de8dcd793207b0ba827af58c30fdcbade870655ed0194bd7d6f0140b9441a1dd579b1e6e944b472cd2cacc658cd5bcf6907f233dd62fceb4919890f49fd02b8f31e7ae18a672c7199fe1cc21aff373fb2446ef9eb2aca0ba0c1b3d300000000\n",
      "{\n",
      "  \"txid\": \"76814caf5d920931111c9f627890f9e3ae71e38e36d3343aa52b96586986b535\",\n",
      "  \"hash\": \"bfdb3e7510eceaed469c8cf681be6a7d54ed53c550bd37eff51ec6ba6de1053f\",\n",
      "  \"version\": 2,\n",
      "  \"size\": 205,\n",
      "  \"vsize\": 154,\n",
      "  \"weight\": 616,\n",
      "  \"locktime\": 0,\n",
      "  \"vin\": [\n",
      "    {\n",
      "      \"txid\": \"db71c69f98a2eaa3b4e4e010d7342adf05128167e152b50641e2a5a1bd86a38d\",\n",
      "      \"vout\": 2,\n",
      "      \"scriptSig\": {\n",
      "        \"asm\": \"\",\n",
      "        \"hex\": \"\"\n",
      "      },\n",
      "      \"txinwitness\": [\n",
      "        \"b9441a1dd579b1e6e944b472cd2cacc658cd5bcf6907f233dd62fceb4919890f49fd02b8f31e7ae18a672c7199fe1cc21aff373fb2446ef9eb2aca0ba0c1b3d3\"\n",
      "      ],\n",
      "      \"sequence\": 4294967295\n",
      "    }\n",
      "  ],\n",
      "  \"vout\": [\n",
      "    {\n",
      "      \"value\": \"0.01000000\",\n",
      "      \"n\": 0,\n",
      "      \"scriptPubKey\": {\n",
      "        \"asm\": \"1 8357b1feaa6bb9a08c921783887ba4e4bb2c2888f33c28ad8447877ba75060d4\",\n",
      "        \"desc\": \"rawtr(8357b1feaa6bb9a08c921783887ba4e4bb2c2888f33c28ad8447877ba75060d4)#705f289j\",\n",
      "        \"hex\": \"51208357b1feaa6bb9a08c921783887ba4e4bb2c2888f33c28ad8447877ba75060d4\",\n",
      "        \"address\": \"bcrt1psdtmrl42dwu6pryjz7pcs7ayujajc2yg7v7z3tvyg7rhhf6svr2qyal6nf\",\n",
      "        \"type\": \"witness_v1_taproot\"\n",
      "      }\n",
      "    },\n",
      "    {\n",
      "      \"value\": \"0.98999700\",\n",
      "      \"n\": 1,\n",
      "      \"scriptPubKey\": {\n",
      "        \"asm\": \"1 6ab489024db00de8dcd793207b0ba827af58c30fdcbade870655ed0194bd7d6f\",\n",
      "        \"desc\": \"rawtr(6ab489024db00de8dcd793207b0ba827af58c30fdcbade870655ed0194bd7d6f)#9qmp8dtx\",\n",
      "        \"hex\": \"51206ab489024db00de8dcd793207b0ba827af58c30fdcbade870655ed0194bd7d6f\",\n",
      "        \"address\": \"bcrt1pd26gjqjdkqx73hxhjvs8kzagy7h43sc0mjadapcx2hksr99a04hsdmcrz6\",\n",
      "        \"type\": \"witness_v1_taproot\"\n",
      "      }\n",
      "    }\n",
      "  ]\n",
      "}\n",
      "funding_channel_txid:  76814caf5d920931111c9f627890f9e3ae71e38e36d3343aa52b96586986b535\n",
      "Commitment Number Osbscured 0xb433fd43a66f\n",
      "Alice Delayed Key: 03d6363615b3d00361158c0f48a4ef81ea12e214e8d56e24098759f6b4267dca8b\n",
      "Bob Revocation PubKey: 025460add4edf0961bfcc6288be0241114d7d90005db28753d835f2353f1529710\n",
      "unsigned_tx:  020000000135b5866958962ba53a34d3368ee371aee3f99078629f1c113109925daf4c81760000000000fd33b480024a01000000000000225120d6363615b3d00361158c0f48a4ef81ea12e214e8d56e24098759f6b4267dca8bdd3f0f0000000000225120a52421c04d821c008f15346cb655de2b7be6934ed692b4966e2d9ac13e2a8ebf6fa64320\n",
      "{\n",
      "  \"txid\": \"6419ff655966cca525325f11c466391b8e9a743008cb6d4c1ba8bd357e07bcdf\",\n",
      "  \"hash\": \"6419ff655966cca525325f11c466391b8e9a743008cb6d4c1ba8bd357e07bcdf\",\n",
      "  \"version\": 2,\n",
      "  \"size\": 137,\n",
      "  \"vsize\": 137,\n",
      "  \"weight\": 548,\n",
      "  \"locktime\": 541304431,\n",
      "  \"vin\": [\n",
      "    {\n",
      "      \"txid\": \"76814caf5d920931111c9f627890f9e3ae71e38e36d3343aa52b96586986b535\",\n",
      "      \"vout\": 0,\n",
      "      \"scriptSig\": {\n",
      "        \"asm\": \"\",\n",
      "        \"hex\": \"\"\n",
      "      },\n",
      "      \"sequence\": 2159293437\n",
      "    }\n",
      "  ],\n",
      "  \"vout\": [\n",
      "    {\n",
      "      \"value\": \"0.00000330\",\n",
      "      \"n\": 0,\n",
      "      \"scriptPubKey\": {\n",
      "        \"asm\": \"1 d6363615b3d00361158c0f48a4ef81ea12e214e8d56e24098759f6b4267dca8b\",\n",
      "        \"desc\": \"rawtr(d6363615b3d00361158c0f48a4ef81ea12e214e8d56e24098759f6b4267dca8b)#v0gll6tz\",\n",
      "        \"hex\": \"5120d6363615b3d00361158c0f48a4ef81ea12e214e8d56e24098759f6b4267dca8b\",\n",
      "        \"address\": \"bcrt1p6cmrv9dn6qpkz9vvpay2fmupagfwy98g64hzgzv8t8mtgfnae29sn4j0xl\",\n",
      "        \"type\": \"witness_v1_taproot\"\n",
      "      }\n",
      "    },\n",
      "    {\n",
      "      \"value\": \"0.00999389\",\n",
      "      \"n\": 1,\n",
      "      \"scriptPubKey\": {\n",
      "        \"asm\": \"1 a52421c04d821c008f15346cb655de2b7be6934ed692b4966e2d9ac13e2a8ebf\",\n",
      "        \"desc\": \"rawtr(a52421c04d821c008f15346cb655de2b7be6934ed692b4966e2d9ac13e2a8ebf)#75e5gcf0\",\n",
      "        \"hex\": \"5120a52421c04d821c008f15346cb655de2b7be6934ed692b4966e2d9ac13e2a8ebf\",\n",
      "        \"address\": \"bcrt1p55jzrszdsgwqprc4x3ktv4w79da7dy6w66ftf9nw9kdvz03236lsdf2rv0\",\n",
      "        \"type\": \"witness_v1_taproot\"\n",
      "      }\n",
      "    }\n",
      "  ]\n",
      "}\n"
     ]
    },
    {
     "name": "stdout",
     "output_type": "stream",
     "text": [
      "aggregated Schnorr verifies? True\n",
      "signed tx:  0200000000010135b5866958962ba53a34d3368ee371aee3f99078629f1c113109925daf4c81760000000000fd33b480024a01000000000000225120d6363615b3d00361158c0f48a4ef81ea12e214e8d56e24098759f6b4267dca8bdd3f0f0000000000225120a52421c04d821c008f15346cb655de2b7be6934ed692b4966e2d9ac13e2a8ebf014006a8187f0d148034b00d3221e5963aeabd531e461ad24d6ea69aa4f8f3faabee1cdb9164213f64d70bed22b57f6cf2d41ab003e2f808fb83210e9f02f5354fc16fa64320\n",
      "{\n",
      "  \"txid\": \"6419ff655966cca525325f11c466391b8e9a743008cb6d4c1ba8bd357e07bcdf\",\n",
      "  \"hash\": \"c5b893b3c65f64ad1d7381f7c3bf38f2245150773a70d6d57f4eca95be95f558\",\n",
      "  \"version\": 2,\n",
      "  \"size\": 205,\n",
      "  \"vsize\": 154,\n",
      "  \"weight\": 616,\n",
      "  \"locktime\": 541304431,\n",
      "  \"vin\": [\n",
      "    {\n",
      "      \"txid\": \"76814caf5d920931111c9f627890f9e3ae71e38e36d3343aa52b96586986b535\",\n",
      "      \"vout\": 0,\n",
      "      \"scriptSig\": {\n",
      "        \"asm\": \"\",\n",
      "        \"hex\": \"\"\n",
      "      },\n",
      "      \"txinwitness\": [\n",
      "        \"06a8187f0d148034b00d3221e5963aeabd531e461ad24d6ea69aa4f8f3faabee1cdb9164213f64d70bed22b57f6cf2d41ab003e2f808fb83210e9f02f5354fc1\"\n",
      "      ],\n",
      "      \"sequence\": 2159293437\n",
      "    }\n",
      "  ],\n",
      "  \"vout\": [\n",
      "    {\n",
      "      \"value\": \"0.00000330\",\n",
      "      \"n\": 0,\n",
      "      \"scriptPubKey\": {\n",
      "        \"asm\": \"1 d6363615b3d00361158c0f48a4ef81ea12e214e8d56e24098759f6b4267dca8b\",\n",
      "        \"desc\": \"rawtr(d6363615b3d00361158c0f48a4ef81ea12e214e8d56e24098759f6b4267dca8b)#v0gll6tz\",\n",
      "        \"hex\": \"5120d6363615b3d00361158c0f48a4ef81ea12e214e8d56e24098759f6b4267dca8b\",\n",
      "        \"address\": \"bcrt1p6cmrv9dn6qpkz9vvpay2fmupagfwy98g64hzgzv8t8mtgfnae29sn4j0xl\",\n",
      "        \"type\": \"witness_v1_taproot\"\n",
      "      }\n",
      "    },\n",
      "    {\n",
      "      \"value\": \"0.00999389\",\n",
      "      \"n\": 1,\n",
      "      \"scriptPubKey\": {\n",
      "        \"asm\": \"1 a52421c04d821c008f15346cb655de2b7be6934ed692b4966e2d9ac13e2a8ebf\",\n",
      "        \"desc\": \"rawtr(a52421c04d821c008f15346cb655de2b7be6934ed692b4966e2d9ac13e2a8ebf)#75e5gcf0\",\n",
      "        \"hex\": \"5120a52421c04d821c008f15346cb655de2b7be6934ed692b4966e2d9ac13e2a8ebf\",\n",
      "        \"address\": \"bcrt1p55jzrszdsgwqprc4x3ktv4w79da7dy6w66ftf9nw9kdvz03236lsdf2rv0\",\n",
      "        \"type\": \"witness_v1_taproot\"\n",
      "      }\n",
      "    }\n",
      "  ]\n",
      "}\n",
      "first_commitment_txid:  6419ff655966cca525325f11c466391b8e9a743008cb6d4c1ba8bd357e07bcdf\n"
     ]
    }
   ],
   "source": [
    "# run notebook\n",
    "\n",
    "%run \"/home/pins-dev/Projects/Taproot-Lightning-Channels-Workshop/chapter 2 - initial commitment transaction/initial commitment transaction.ipynb\""
   ]
  },
  {
   "cell_type": "markdown",
   "id": "8e4ccc9a",
   "metadata": {},
   "source": [
    "## HTLC (Hashed Time Locked Contracts)\n",
    "\n",
    "Once the channel is established, it can be used to make payments via HTLCs (Hashed Time-Locked Contracts).\n",
    "\n",
    "Updates to the channel state are sent in batches: one or more `update_ messages` are exchanged before a `commitment_signed` message is sent. In the diagram below, we show only one`update_message` per `commitment_signed` for simplicity:\n",
    "\n",
    "    +-----------+                                                  +-----------+\n",
    "    |           |------------------ update_add_htlc -------------->|           |\n",
    "    |           |----- commitment_signed (partial sig & nonce) --->|           |\n",
    "    |   Alice   |                                                  |    Bob    |\n",
    "    |           |<------------- revoke_and_ack (nonce) ------------|           |\n",
    "    |           |<---- commitment_signed  (partial sig & nonce) ---|           |\n",
    "    |           |-------------- revoke_and_ack (nonce) ----------->|           |\n",
    "    |           |                                                  |           |\n",
    "    +-----------+                                                  +-----------+\n",
    "\n",
    "The messages are defined in the [BOLT 2](https://github.com/lightning/bolts/blob/master/02-peer-protocol.md#adding-an-htlc-update_add_htlc).\n",
    "\n",
    "### The `update_add_htlc` Message\n",
    "\n",
    "Alice sends the `update_add_htlc`  message to Bob, which includes the details of the HTLC being offered:\n",
    "- channel_id\n",
    "- id (htlc counter starting in zero)\n",
    "- amount_msat\n",
    "- payment_hash\n",
    "- cltv_expiry\n",
    "- onion_routing_packet\n",
    "\n",
    "### The `commitment_signed` Message\n",
    "\n",
    "Shortly after sending the `update_add_htlc` message, Alice commits to the new channel state so that the HTLC can be safely included by Bob. At this point, Bob has the HTLC information and has constructed a new commitment transaction, but he hasn't yet received Alice's signature for it.\n",
    "\n",
    "Alice sends a `commitment_signed`message to Bob, which includes her signature for the new commitment transaction as well as the HTLC output it contains:\n",
    "- channel_id\n",
    "- signature\n",
    "- num_htlcs\n",
    "- partial_signature_with_nonce\n",
    "\n",
    "### The `revoke_and_ack` Message\n",
    "\n",
    "Now that Bob has a new signed commitment, he needs to acknowledge it and revoke the previous one. He does this by sending a`revoke_and_ack` message to Alice:\n",
    "\n",
    "- channel_id\n",
    "- per_commitment_secret\n",
    "- next_per_commitment_point\n",
    "- nonce\n",
    "\n",
    "Finally, Bob sends a `commitment_signed` message to Alice, and Alice responds with a `revoke_and_ack` message. At this point, both parties have fully signed the new commitment transaction.\n"
   ]
  },
  {
   "cell_type": "markdown",
   "id": "1deb027d",
   "metadata": {},
   "source": [
    "### The Unsigned Transaction\n",
    "\n",
    "### The Input\n",
    "\n",
    "The input is the channel funding transaction."
   ]
  },
  {
   "cell_type": "code",
   "execution_count": null,
   "id": "329d69ef",
   "metadata": {},
   "outputs": [],
   "source": [
    "# VERSION\n",
    "# version '2' indicates that we may use relative timelocks (BIP68)\n",
    "version = bytes.fromhex(\"0200 0000\")\n",
    "\n",
    "# MARKER (new to segwit)\n",
    "marker = bytes.fromhex(\"00\")\n",
    "\n",
    "# FLAG (new to segwit)\n",
    "flag = bytes.fromhex(\"01\")\n",
    "\n",
    "# INPUTS\n",
    "# We have just 1 input\n",
    "input_count = bytes.fromhex(\"01\")\n",
    "\n",
    "# Convert txid and index to bytes (little endian)\n",
    "txid = (bytes.fromhex(funding_channel_txid))[::-1]\n",
    "funding_channel_index = 0\n",
    "index = funding_channel_index.to_bytes(4, byteorder=\"little\", signed=False)\n",
    "\n",
    "# For the unsigned transaction we use an empty scriptSig\n",
    "scriptsig = bytes.fromhex(\"\")\n",
    "\n",
    "# sequence: upper 8 bits are 0x80, lower 24 bits are the upper 24 bits of the obscured commitment number\n",
    "# Commitment number of the second commitment transaction.\n",
    "commitment_number = 1\n",
    "# obscured commitment number is result of xor operation \n",
    "commitment_number_obscured = lower48_to_obscure ^ commitment_number\n",
    "# Extract the upper 24 bits of the obscured commitment number\n",
    "upper_24_bits = (commitment_number_obscured >> 24) & 0xFFFFFF\n",
    "# Combine the upper 8 bits (0x80) with the lower 24 bits (upper 24 of obscured number)\n",
    "sequence = (0x80 << 24) | upper_24_bits\n",
    "# Convert to bytes (byte, big-endian)\n",
    "sequence = sequence.to_bytes(4, byteorder='big')\n",
    "# Convert to little-endian \n",
    "sequence = sequence[::-1]\n",
    "\n",
    "inputs = (\n",
    "    txid\n",
    "    + index\n",
    "    + varint_len(scriptsig)\n",
    "    + scriptsig\n",
    "    + sequence\n",
    ")\n",
    "\n",
    "print(\"Commitment Number Osbscured\", hex(commitment_number_obscured))"
   ]
  },
  {
   "cell_type": "markdown",
   "id": "d397f86b",
   "metadata": {},
   "source": [
    "### The Outputs\n",
    "\n",
    "Let’s assume Alice is sending 0.5 million satoshis to Bob, for this reason Alice node is offering an HTLC to Bob's node of this value."
   ]
  },
  {
   "cell_type": "markdown",
   "id": "d36fc77d",
   "metadata": {},
   "source": [
    "#### The Offered HTLC otuput\n",
    "\n",
    "We will also add an offered HTLC otuput, which pays out to the remote party if they reveal the pre-image to a given hash before a certain CLTV timeout. After the timeout, the local party will be able to claim the output via the htlc-timeout transaction. If the commitment transaction is a revoked state, then the remote party should be able to sweep the output at any time.\n",
    "\n",
    "\n",
    "\n",
    "    +------+---------------+\n",
    "    | OP_1 |       Q       |\n",
    "    +------+---------------+\n",
    "                   ^\n",
    "                   |   +-------------------+\n",
    "                    ---| P(revocation) + T |\n",
    "                       +-------------------+\n",
    "                                         ^\n",
    "                                         |\n",
    "                                   +-----------+        \n",
    "                                   | T = t * G |\n",
    "                                   +-----------+        \n",
    "                                         ^\n",
    "                                         |\n",
    "     +---+   +-------------------------------------------------------+\n",
    "     | t | = | TaggedHash (\"Taptweak\", P(revocation) || script_root) |\n",
    "     +---+   +-------------------------------------------------------+\n",
    "                                                             ^\n",
    "                                                             |\n",
    "                                                          +-----+\n",
    "                          ------------------------------> | hAB |<------------------\n",
    "                         |                                +-----+                   |\n",
    "                         |                                                          |\n",
    "                         |                                                          |\n",
    "                      +----+                                                     +----+\n",
    "                      | hA |                                                     | hB |\n",
    "                      +----+                                                     +----+\n",
    "                         ^                                                          ^\n",
    "                         |                                                          |\n",
    "      +---------------------------------+                                           |\n",
    "      | P(local_htlc) OP_CHECKSIGVERIFY |                                           |\n",
    "      |                                 |                                           |\n",
    "      | P(remote_htlc) OP_CHECKSIG      |                                           |\n",
    "      +---------------------------------+                                           |\n",
    "      +---------------------------------------------------------------------------------------------+ \n",
    "      | OP_SIZE 32 OP_EQUALVERIFY OP_HASH160 <RIPEMD160(payment_hash)> OP_EQUALVERIFY P(remote_htlc) |\n",
    "      |                                                                                              |\n",
    "      | OP_CHECKSIG OP_1 OP_CHECKSEQUENCEVERIFY OP_DROP                                              |\n",
    "      +----------------------------------------------------------------------------------------------+"
   ]
  },
  {
   "cell_type": "code",
   "execution_count": null,
   "id": "61693a72",
   "metadata": {},
   "outputs": [],
   "source": [
    "# Create Alice per-commitment\n",
    "alice_per_commitment = per_commitment(alice_per_commitment_seed, commitment_number)\n",
    "# Create Bob per-commitment\n",
    "bob_per_commitment = per_commitment(bob_per_commitment_seed, commitment_number)\n",
    "\n",
    "# Create Alice Delayed Public Key\n",
    "alice_delayed_pubkey = derivate_key(alice_node_seed, family=4).get_pubkey(alice_per_commitment.get_pub())\n",
    "print(f\"Alice Delayed PubKey: {alice_delayed_pubkey.get_bytes(bip340=False).hex()}\")\n",
    "\n",
    "# Create Bob Revocation Public Key\n",
    "bob_revocation_pubkey = derivate_revocation_key(bob_node_seed).get_pubkey(alice_per_commitment.get_pub())\n",
    "print(f\"Bob Revocation PubKey: {bob_revocation_pubkey.get_bytes(bip340=False).hex()}\")\n",
    "\n",
    "# Create Alice HTLC Public Key\n",
    "alice_htlc_pubkey = derivate_key(alice_node_seed, family=2).get_pubkey(alice_per_commitment.get_pub())\n",
    "print(f\"Alice HTLC PubKey: {alice_htlc_pubkey.get_bytes(bip340=False).hex()}\")\n",
    "\n",
    "# Create Bob HTLC Public Key\n",
    "bob_htlc_pubkey = derivate_key(bob_node_seed, family=2).get_pubkey(bob_per_commitment.get_pub())\n",
    "print(f\"Bob HTLC PubKey: {bob_htlc_pubkey.get_bytes(bip340=False).hex()}\")\n",
    "\n",
    "# Outputs for Alice Second Commitment Transaction\n",
    "# 0x03 outputs\n",
    "output_count = bytes.fromhex(\"03\")\n",
    "\n",
    "# ANCHOR OUTPUT\n",
    "# Anchor output amount\n",
    "anchor_output_value_satoshis = 330\n",
    "anchor_output_value = anchor_output_value_satoshis.to_bytes(8, byteorder=\"little\", signed=False)\n",
    "\n",
    "# OP_16 OP_CSV\n",
    "script = CScript([OP_16, OP_CHECKSEQUENCEVERIFY])\n",
    "\n",
    "# Method: ser_string(data) is a function which adds compactsize to input data.\n",
    "hash_input = TAPSCRIPT_VER + ser_string(script)\n",
    "\n",
    "# Anchor Output script_root\n",
    "script_root = tagged_hash(\"TapBranch\", hash_input)\n",
    "\n",
    "# Anchor Output Tagged Hash\n",
    "taptweak = tagged_hash(\"TapTweak\", alice_delayed_pubkey.get_bytes() + script_root)\n",
    "alice_delayed_pubkey_tweaked = alice_delayed_pubkey.tweak_add(taptweak)\n",
    "# scriptPubKey P2TR: OP_1 (0x51) + PUSH32 (0x20) + xonly(32B)\n",
    "alice_anchor_spk = bytes.fromhex(\"51\") + varint_len(alice_delayed_pubkey_tweaked.get_bytes()) + alice_delayed_pubkey.get_bytes()\n",
    "\n",
    "# OFFERED HTLC OUTPUT\n",
    "# HTLC output amount\n",
    "htlc_output_value_satoshis = 500000\n",
    "htlc_output_value = htlc_output_value_satoshis.to_bytes(8, byteorder=\"little\", signed=False)\n",
    "\n",
    "# Create the leaf scripts A and B\n",
    "# Leaf script A: P(local_htlc) OP_CHECKSIGVERIFY P(remote_htlc) OP_CHECKSIG\n",
    "\n"
   ]
  },
  {
   "cell_type": "markdown",
   "id": "5c259055",
   "metadata": {},
   "source": [
    "### Fee Calculation"
   ]
  },
  {
   "cell_type": "code",
   "execution_count": null,
   "id": "c3d3ca97",
   "metadata": {},
   "outputs": [],
   "source": [
    "# Second commitment expected weight 1124 + 172 * num-untrimmed-htlc-outputs\n",
    "commitment_weight = 1124 + 172 * 1\n",
    "\n",
    "# From open_channel and update_feerate messages (1 sat/vb = 250 sat/kw)\n",
    "feerate_per_kw = 250\n",
    "\n",
    "# Calculate the fee for the second commitment transaction\n",
    "commitment_fee = int(commitment_weight * feerate_per_kw / 1000)"
   ]
  }
 ],
 "metadata": {
  "kernelspec": {
   "display_name": "Python 3 (ipykernel)",
   "language": "python",
   "name": "python3"
  },
  "language_info": {
   "codemirror_mode": {
    "name": "ipython",
    "version": 3
   },
   "file_extension": ".py",
   "mimetype": "text/x-python",
   "name": "python",
   "nbconvert_exporter": "python",
   "pygments_lexer": "ipython3",
   "version": "3.12.3"
  }
 },
 "nbformat": 4,
 "nbformat_minor": 5
}
