{
 "cells": [
  {
   "cell_type": "markdown",
   "id": "803c7040",
   "metadata": {},
   "source": [
    "# Creating a Collaborative Closing Transaction\n",
    "\n",
    "In this section, we'll build a lightning channel closing transaction from scratch using Python. We'll walk through each part of the transaction — how it's constructed, signed, and the messages exchanged between peers to coordinate the close. The process will be tested using Bitcoin Core in regtest mode."
   ]
  },
  {
   "cell_type": "markdown",
   "id": "b654c232",
   "metadata": {},
   "source": [
    "## Setup\n",
    "\n",
    "For this notebook, we’ll use the Chapter 1 – Channel Funding Transaction, where the funding transaction was created and confirmed on our regtest blockchain."
   ]
  },
  {
   "cell_type": "code",
   "execution_count": 1,
   "id": "302113b9",
   "metadata": {
    "vscode": {
     "languageId": "plaintext"
    }
   },
   "outputs": [
    {
     "name": "stdout",
     "output_type": "stream",
     "text": [
      "2025-09-22T03:54:43.969000Z TestFramework (INFO): PRNG seed is: 7450639066943860050\n",
      "2025-09-22T03:54:43.971000Z TestFramework (INFO): Initializing test directory /tmp/bitcoin_func_test_szkh_n9t\n",
      "Alice Per Commitment Seed 34b581ec20bf2c6cae3d4d4dcbfddc8a3727a1e9a57c55f3520e770607898c06\n",
      "Bob Per Commitment Seed 89c994b3ddad4698acee71e42d8bcace48eea739caaba371eb110e77663ec56d\n",
      "Alice Payment BasePoint:  025f892a06124391e2f38ce35d943cdc09f63e203330dbd9cb6113a903e0738458\n",
      "Bob Payment BasePoint:  02f98efd3f2b2fbe7bd83c419f5f64f8280798b8a9175fdb77c0091bbb95c79506\n",
      "To obscure commitment number 0xb433fd43a66f\n",
      "Alice funding pubkey: b3b2d6aa306f7c72de75aa03c4ebb9d1d58f57d5094014ce18c150dcd3b79270\n",
      "Alice funding privkey: 363568cbead851efdb7deb183a695973fa0506888da1c8dcea3da434fc514d3b\n",
      "Alice funding address: bcrt1pkwedd23sda789hn44gpuf6ae682c7474p9qpfnscc9gde5ahjfcqagye0g\n",
      "Bob funding pubkey: 94a9668cc194c84e9aa972cda15848dc14f44e764d2941c1d37b166a60d5cb14\n",
      "Bob funding privkey: 4bf107a8bcf36a764f58068b4addfaa91c17363d4f7485da6186a7f09d63483d\n",
      "Bob funding address: bcrt1pjj5kdrxpjnyyax4fwtx6zkzgms20gnnkf555rswn0vtx5cx4ev2qqd92yf\n",
      "Transaction creating Alice UTXO: 758123a5dc4d919b4e728e0eeb88a0db0819dcc6ec01c739e8b240b72f879f73\n",
      "{\n",
      "  \"txid\": \"758123a5dc4d919b4e728e0eeb88a0db0819dcc6ec01c739e8b240b72f879f73\",\n",
      "  \"hash\": \"2c043a170aa5741fc2b92cc7b26fd0ae25eecd1fc704ed18f4b6a9f3d4b5a400\",\n",
      "  \"version\": 2,\n",
      "  \"size\": 289,\n",
      "  \"vsize\": 208,\n",
      "  \"weight\": 829,\n",
      "  \"locktime\": 101,\n",
      "  \"vin\": [\n",
      "    {\n",
      "      \"txid\": \"c8fc80a923da970c437b7f14fc4de000b643e1d1ea740c31758ee3c500f25b2a\",\n",
      "      \"vout\": 0,\n",
      "      \"scriptSig\": {\n",
      "        \"asm\": \"\",\n",
      "        \"hex\": \"\"\n",
      "      },\n",
      "      \"txinwitness\": [\n",
      "        \"3044022040f778836e19bd4ec6f7bf7ac0368d22f2ed171d289c912ad91dd98aebbcd1f602201055b0d802810485937ca4723afdbfffa50382b6177a29d4720bf6cc50e9631b01\",\n",
      "        \"0275983d4029a602907503a0a3ffb627aff594cc7a9f8e18e05359fb3e21bd3100\"\n",
      "      ],\n",
      "      \"sequence\": 4294967293\n",
      "    }\n",
      "  ],\n",
      "  \"vout\": [\n",
      "    {\n",
      "      \"value\": \"1.00000000\",\n",
      "      \"n\": 0,\n",
      "      \"scriptPubKey\": {\n",
      "        \"asm\": \"1 b3b2d6aa306f7c72de75aa03c4ebb9d1d58f57d5094014ce18c150dcd3b79270\",\n",
      "        \"desc\": \"rawtr(b3b2d6aa306f7c72de75aa03c4ebb9d1d58f57d5094014ce18c150dcd3b79270)#mf3gq9vk\",\n",
      "        \"hex\": \"5120b3b2d6aa306f7c72de75aa03c4ebb9d1d58f57d5094014ce18c150dcd3b79270\",\n",
      "        \"address\": \"bcrt1pkwedd23sda789hn44gpuf6ae682c7474p9qpfnscc9gde5ahjfcqagye0g\",\n",
      "        \"type\": \"witness_v1_taproot\"\n",
      "      }\n",
      "    },\n",
      "    {\n",
      "      \"value\": \"47.99995840\",\n",
      "      \"n\": 1,\n",
      "      \"scriptPubKey\": {\n",
      "        \"asm\": \"1 bfe32eef0ac1136f157b2f790febf6d3f00b76239f483c0a67274fdfcda37608\",\n",
      "        \"desc\": \"rawtr(bfe32eef0ac1136f157b2f790febf6d3f00b76239f483c0a67274fdfcda37608)#63r8man3\",\n",
      "        \"hex\": \"5120bfe32eef0ac1136f157b2f790febf6d3f00b76239f483c0a67274fdfcda37608\",\n",
      "        \"address\": \"bcrt1phl3jamc2cyfk79tm9ausl6lk60cqka3rnayrczn8ya8alndrwcyqqaysc4\",\n",
      "        \"type\": \"witness_v1_taproot\"\n",
      "      }\n",
      "    },\n",
      "    {\n",
      "      \"value\": \"1.00000000\",\n",
      "      \"n\": 2,\n",
      "      \"scriptPubKey\": {\n",
      "        \"asm\": \"1 94a9668cc194c84e9aa972cda15848dc14f44e764d2941c1d37b166a60d5cb14\",\n",
      "        \"desc\": \"rawtr(94a9668cc194c84e9aa972cda15848dc14f44e764d2941c1d37b166a60d5cb14)#5y9qs722\",\n",
      "        \"hex\": \"512094a9668cc194c84e9aa972cda15848dc14f44e764d2941c1d37b166a60d5cb14\",\n",
      "        \"address\": \"bcrt1pjj5kdrxpjnyyax4fwtx6zkzgms20gnnkf555rswn0vtx5cx4ev2qqd92yf\",\n",
      "        \"type\": \"witness_v1_taproot\"\n",
      "      }\n",
      "    }\n",
      "  ],\n",
      "  \"hex\": \"020000000001012a5bf200c5e38e75310c74ead1e143b600e04dfc147f7b430c97da23a980fcc80000000000fdffffff0300e1f50500000000225120b3b2d6aa306f7c72de75aa03c4ebb9d1d58f57d5094014ce18c150dcd3b79270c01f1a1e01000000225120bfe32eef0ac1136f157b2f790febf6d3f00b76239f483c0a67274fdfcda3760800e1f5050000000022512094a9668cc194c84e9aa972cda15848dc14f44e764d2941c1d37b166a60d5cb1402473044022040f778836e19bd4ec6f7bf7ac0368d22f2ed171d289c912ad91dd98aebbcd1f602201055b0d802810485937ca4723afdbfffa50382b6177a29d4720bf6cc50e9631b01210275983d4029a602907503a0a3ffb627aff594cc7a9f8e18e05359fb3e21bd310065000000\"\n",
      "}\n",
      "Alice transaction to spend: 758123a5dc4d919b4e728e0eeb88a0db0819dcc6ec01c739e8b240b72f879f73:0\n",
      "Alice funding pubkey: 3e099abe0e9ef248b1a38dab3b7751e5d094bf17cbd118e952495f547e534c96\n",
      "Alice funding privkey: 4a288321422ba9244f6b67c090cbd6bcd8f8e1b59b3d4d0dccf23d968cecfb66\n",
      "Alice funding address: bcrt1p8cye40swnmey3vdr3k4nka63uhgff0che0g3362jf904gljnfjtq9zv6sk\n",
      "Alice MuSig2 pubkey: 02db03d58541cecb0b623724d71d59d80cd540a9995ecba7697f6056fb5bc4a8bd\n",
      "Alice MuSig2 privkey: 855a85bd28a286a1142108c4ab2629128b5538d14f42e71825d106f73290bbb9\n",
      "Bob MuSig2 pubkey: 02590a3ea532c3a6b562f20f3871e500209c89e29ea245d667d45c7ea3bb94d847\n",
      "Bob MuSig2 privkey: 48ad5305e0ed18a9f5924b2659286d1fecef173ef4ac0542ab98a73eb477ec7d\n",
      "Aggregate musig2 pubkey: e52383ff88138f9655443361db33315e46a93b166e696c10106ecf66223fe347\n",
      "Channel funding musig2 output address: bcrt1pu53c8lugzw8ev42yxdsakve3ter2jwckde5kcyqsdm8kvg3ludrs6ef05x\n",
      "unsigned_tx:  0200000001739f872fb740b2e839c701ecc6dc1908dba088eb0e8e724e9b914ddca52381750000000000ffffffff0240420f0000000000225120e52383ff88138f9655443361db33315e46a93b166e696c10106ecf66223fe347949de605000000002251203e099abe0e9ef248b1a38dab3b7751e5d094bf17cbd118e952495f547e534c9600000000\n",
      "{\n",
      "  \"txid\": \"fb0abcaea7a6b162a97851c7b87043f698287cb90a63478f1d9af12897054031\",\n",
      "  \"hash\": \"fb0abcaea7a6b162a97851c7b87043f698287cb90a63478f1d9af12897054031\",\n",
      "  \"version\": 2,\n",
      "  \"size\": 137,\n",
      "  \"vsize\": 137,\n",
      "  \"weight\": 548,\n",
      "  \"locktime\": 0,\n",
      "  \"vin\": [\n",
      "    {\n",
      "      \"txid\": \"758123a5dc4d919b4e728e0eeb88a0db0819dcc6ec01c739e8b240b72f879f73\",\n",
      "      \"vout\": 0,\n",
      "      \"scriptSig\": {\n",
      "        \"asm\": \"\",\n",
      "        \"hex\": \"\"\n",
      "      },\n",
      "      \"sequence\": 4294967295\n",
      "    }\n",
      "  ],\n",
      "  \"vout\": [\n",
      "    {\n",
      "      \"value\": \"0.01000000\",\n",
      "      \"n\": 0,\n",
      "      \"scriptPubKey\": {\n",
      "        \"asm\": \"1 e52383ff88138f9655443361db33315e46a93b166e696c10106ecf66223fe347\",\n",
      "        \"desc\": \"rawtr(e52383ff88138f9655443361db33315e46a93b166e696c10106ecf66223fe347)#kg60cga4\",\n",
      "        \"hex\": \"5120e52383ff88138f9655443361db33315e46a93b166e696c10106ecf66223fe347\",\n",
      "        \"address\": \"bcrt1pu53c8lugzw8ev42yxdsakve3ter2jwckde5kcyqsdm8kvg3ludrs6ef05x\",\n",
      "        \"type\": \"witness_v1_taproot\"\n",
      "      }\n",
      "    },\n",
      "    {\n",
      "      \"value\": \"0.98999700\",\n",
      "      \"n\": 1,\n",
      "      \"scriptPubKey\": {\n",
      "        \"asm\": \"1 3e099abe0e9ef248b1a38dab3b7751e5d094bf17cbd118e952495f547e534c96\",\n",
      "        \"desc\": \"rawtr(3e099abe0e9ef248b1a38dab3b7751e5d094bf17cbd118e952495f547e534c96)#7c67nq8g\",\n",
      "        \"hex\": \"51203e099abe0e9ef248b1a38dab3b7751e5d094bf17cbd118e952495f547e534c96\",\n",
      "        \"address\": \"bcrt1p8cye40swnmey3vdr3k4nka63uhgff0che0g3362jf904gljnfjtq9zv6sk\",\n",
      "        \"type\": \"witness_v1_taproot\"\n",
      "      }\n",
      "    }\n",
      "  ]\n",
      "}\n",
      "signed tx:  02000000000101739f872fb740b2e839c701ecc6dc1908dba088eb0e8e724e9b914ddca52381750000000000ffffffff0240420f0000000000225120e52383ff88138f9655443361db33315e46a93b166e696c10106ecf66223fe347949de605000000002251203e099abe0e9ef248b1a38dab3b7751e5d094bf17cbd118e952495f547e534c960140c1d9e94b5e33aa19086973b81a2dee2dd00e5a69e9dbf3b21222a3813f9bf18514fb9b7dc08bbfa1998ab0404a6cfa1e6c5f97af9484ca644ab1ea8007a7794700000000\n",
      "{\n",
      "  \"txid\": \"fb0abcaea7a6b162a97851c7b87043f698287cb90a63478f1d9af12897054031\",\n",
      "  \"hash\": \"35fa794e702c4b2ac269b52c3d96fb3422c4dfb8fced58c41aa94c22c1ef78bb\",\n",
      "  \"version\": 2,\n",
      "  \"size\": 205,\n",
      "  \"vsize\": 154,\n",
      "  \"weight\": 616,\n",
      "  \"locktime\": 0,\n",
      "  \"vin\": [\n",
      "    {\n",
      "      \"txid\": \"758123a5dc4d919b4e728e0eeb88a0db0819dcc6ec01c739e8b240b72f879f73\",\n",
      "      \"vout\": 0,\n",
      "      \"scriptSig\": {\n",
      "        \"asm\": \"\",\n",
      "        \"hex\": \"\"\n",
      "      },\n",
      "      \"txinwitness\": [\n",
      "        \"c1d9e94b5e33aa19086973b81a2dee2dd00e5a69e9dbf3b21222a3813f9bf18514fb9b7dc08bbfa1998ab0404a6cfa1e6c5f97af9484ca644ab1ea8007a77947\"\n",
      "      ],\n",
      "      \"sequence\": 4294967295\n",
      "    }\n",
      "  ],\n",
      "  \"vout\": [\n",
      "    {\n",
      "      \"value\": \"0.01000000\",\n",
      "      \"n\": 0,\n",
      "      \"scriptPubKey\": {\n",
      "        \"asm\": \"1 e52383ff88138f9655443361db33315e46a93b166e696c10106ecf66223fe347\",\n",
      "        \"desc\": \"rawtr(e52383ff88138f9655443361db33315e46a93b166e696c10106ecf66223fe347)#kg60cga4\",\n",
      "        \"hex\": \"5120e52383ff88138f9655443361db33315e46a93b166e696c10106ecf66223fe347\",\n",
      "        \"address\": \"bcrt1pu53c8lugzw8ev42yxdsakve3ter2jwckde5kcyqsdm8kvg3ludrs6ef05x\",\n",
      "        \"type\": \"witness_v1_taproot\"\n",
      "      }\n",
      "    },\n",
      "    {\n",
      "      \"value\": \"0.98999700\",\n",
      "      \"n\": 1,\n",
      "      \"scriptPubKey\": {\n",
      "        \"asm\": \"1 3e099abe0e9ef248b1a38dab3b7751e5d094bf17cbd118e952495f547e534c96\",\n",
      "        \"desc\": \"rawtr(3e099abe0e9ef248b1a38dab3b7751e5d094bf17cbd118e952495f547e534c96)#7c67nq8g\",\n",
      "        \"hex\": \"51203e099abe0e9ef248b1a38dab3b7751e5d094bf17cbd118e952495f547e534c96\",\n",
      "        \"address\": \"bcrt1p8cye40swnmey3vdr3k4nka63uhgff0che0g3362jf904gljnfjtq9zv6sk\",\n",
      "        \"type\": \"witness_v1_taproot\"\n",
      "      }\n",
      "    }\n",
      "  ]\n",
      "}\n",
      "funding_channel_txid:  fb0abcaea7a6b162a97851c7b87043f698287cb90a63478f1d9af12897054031\n"
     ]
    }
   ],
   "source": [
    "# run notebook\n",
    "%run \"/home/pins-dev/Projects/Taproot-Lightning-Channels-Workshop/chapter 1 - channel funding transaction/funding-transaction.ipynb\""
   ]
  },
  {
   "cell_type": "markdown",
   "id": "f07e5747",
   "metadata": {},
   "source": [
    "## Legacy cooperative closure\n",
    "\n",
    "Compared to the base segwit v0 channel type, for simple taproot channels, the co-op close transaction now always signals RBF. In other words, the sequence field of the sole input to the cooperative close transaction MUST be less-than-or-equal to 0xfffffffd. This enables a future cooperative closure flow to support increasing the fee of subsequent close offers via RBF.\n",
    "\n",
    "In addition, rather than adopt the existing cooperative closure fee rate \"negotiation\", the responder SHOULD now always accept the offer sent by the initiator. In other words, the cooperative close process now terminates after exactly 1 RTTs: initiator sends sigs with offer, with the responder echo'ing back the same fee rate. This serves to ensure that the co-op close process always terminates deterministically, and also plays nicer with the nonces: only a single message is ever signed by both sides for a coop close workflow.\n",
    "\n",
    "    +-----------+                                        +---------+\n",
    "    |           |--(1)-------- shutdown (nonce) -------->|         |\n",
    "    |           |<-(2)-------- shutdown (nonce) ---------|         |\n",
    "    |           |                                        |         |\n",
    "    |   Alice   |--(3)-- closing_signed (partial sig) -->|   Bob   |\n",
    "    |           |<-(4)-- closing_signed (partial sig) ---|         |\n",
    "    |           |                                        |         |\n",
    "    |           |                                        |         |\n",
    "    |           |                                        |         |\n",
    "    +-----------+                                        +---------+\n",
    "\n",
    "## Modern RBF-based cooperative close\n",
    "\n",
    "For taproot channels supporting RBF cooperative close, nonces are delivered just-in-time (JIT) with signatures using an asymmetric pattern:\n",
    "\n",
    "Initial Exchange: Nonces are exchanged in shutdown messages\n",
    "\n",
    "Each party sends their \"closee nonce\" - the nonce they'll use when signing as the closee. This nonce is used by the remote party when they act as closer.\n",
    "\n",
    "#### RBF Iterations: Subsequent nonces are delivered with signatures\n",
    "\n",
    "* closing_complete (from closer): uses partial_sig_w_nonce bundles the partial signature with the sender's closer nonce. The bundling is necessary because the closee doesn't know this nonce yet.\n",
    "\n",
    "* closing_sig (from closee): uses partial_sig plus nonce (NextCloseeNonce) field\n",
    "\n",
    "Asymmetric Roles:\n",
    "\n",
    "* Closer: The party sending closing_complete, proposing a new fee\n",
    "* Closee: The party sending closing_sig, accepting the fee proposal\n",
    "\n",
    "Each party alternates between these roles during RBF iterations.\n",
    "\n",
    "    +-----------+                                                    +---------+\n",
    "    |           |--(1)-------------- shutdown (nonce) -------------->|         |\n",
    "    |           |<-(2)-------------- shutdown (nonce) ---------------|         |\n",
    "    |           |                                                    |         |\n",
    "    |   Alice   |--(3)- closing_complete (partial sig & jit nonce) ->|   Bob   |\n",
    "    |           |<-(4)------ closing_sig (partial sig & nonce)-------|         |\n",
    "    |           |                                                    |         |\n",
    "    |           |<-(5)- closing_complete (partial sig & jit nonce) ->|         |\n",
    "    |           |--(6)------ closing_sig (partial sig) (nonce)------>|         |\n",
    "    |           |                                                    |         |\n",
    "    +-----------+                                                    +---------+\n",
    "\n"
   ]
  },
  {
   "cell_type": "markdown",
   "id": "ac2a9161",
   "metadata": {},
   "source": [
    "## The Unsined Transaxaction"
   ]
  },
  {
   "cell_type": "code",
   "execution_count": 2,
   "id": "6e43a4b0",
   "metadata": {},
   "outputs": [
    {
     "name": "stdout",
     "output_type": "stream",
     "text": [
      "unsigned_tx:  02000000013140059728f19a1d8f47630ab97c2898f64370b8c75178a962b1a6a7aebc0afb0000000000fdffffff02f49f070000000000225120b3b2d6aa306f7c72de75aa03c4ebb9d1d58f57d5094014ce18c150dcd3b7927020a107000000000022512094a9668cc194c84e9aa972cda15848dc14f44e764d2941c1d37b166a60d5cb1400000000\n",
      "{\n",
      "  \"txid\": \"e2ca97378e285b9ff364a231d4ecc82078acdde7f6d060602bbd0b4cd03acc77\",\n",
      "  \"hash\": \"e2ca97378e285b9ff364a231d4ecc82078acdde7f6d060602bbd0b4cd03acc77\",\n",
      "  \"version\": 2,\n",
      "  \"size\": 137,\n",
      "  \"vsize\": 137,\n",
      "  \"weight\": 548,\n",
      "  \"locktime\": 0,\n",
      "  \"vin\": [\n",
      "    {\n",
      "      \"txid\": \"fb0abcaea7a6b162a97851c7b87043f698287cb90a63478f1d9af12897054031\",\n",
      "      \"vout\": 0,\n",
      "      \"scriptSig\": {\n",
      "        \"asm\": \"\",\n",
      "        \"hex\": \"\"\n",
      "      },\n",
      "      \"sequence\": 4294967293\n",
      "    }\n",
      "  ],\n",
      "  \"vout\": [\n",
      "    {\n",
      "      \"value\": \"0.00499700\",\n",
      "      \"n\": 0,\n",
      "      \"scriptPubKey\": {\n",
      "        \"asm\": \"1 b3b2d6aa306f7c72de75aa03c4ebb9d1d58f57d5094014ce18c150dcd3b79270\",\n",
      "        \"desc\": \"rawtr(b3b2d6aa306f7c72de75aa03c4ebb9d1d58f57d5094014ce18c150dcd3b79270)#mf3gq9vk\",\n",
      "        \"hex\": \"5120b3b2d6aa306f7c72de75aa03c4ebb9d1d58f57d5094014ce18c150dcd3b79270\",\n",
      "        \"address\": \"bcrt1pkwedd23sda789hn44gpuf6ae682c7474p9qpfnscc9gde5ahjfcqagye0g\",\n",
      "        \"type\": \"witness_v1_taproot\"\n",
      "      }\n",
      "    },\n",
      "    {\n",
      "      \"value\": \"0.00500000\",\n",
      "      \"n\": 1,\n",
      "      \"scriptPubKey\": {\n",
      "        \"asm\": \"1 94a9668cc194c84e9aa972cda15848dc14f44e764d2941c1d37b166a60d5cb14\",\n",
      "        \"desc\": \"rawtr(94a9668cc194c84e9aa972cda15848dc14f44e764d2941c1d37b166a60d5cb14)#5y9qs722\",\n",
      "        \"hex\": \"512094a9668cc194c84e9aa972cda15848dc14f44e764d2941c1d37b166a60d5cb14\",\n",
      "        \"address\": \"bcrt1pjj5kdrxpjnyyax4fwtx6zkzgms20gnnkf555rswn0vtx5cx4ev2qqd92yf\",\n",
      "        \"type\": \"witness_v1_taproot\"\n",
      "      }\n",
      "    }\n",
      "  ]\n",
      "}\n"
     ]
    }
   ],
   "source": [
    "# VERSION\n",
    "# version '2' indicates that we may use relative timelocks (BIP68)\n",
    "version = bytes.fromhex(\"0200 0000\")\n",
    "\n",
    "# MARKER (new to segwit)\n",
    "marker = bytes.fromhex(\"00\")\n",
    "\n",
    "# FLAG (new to segwit)\n",
    "flag = bytes.fromhex(\"01\")\n",
    "\n",
    "# INPUTS\n",
    "# We have just 1 input\n",
    "input_count = bytes.fromhex(\"01\")\n",
    "\n",
    "# Convert txid and index to bytes (little endian)\n",
    "txid = (bytes.fromhex(funding_channel_txid))[::-1]\n",
    "funding_channel_index = 0\n",
    "index = funding_channel_index.to_bytes(4, byteorder=\"little\", signed=False)\n",
    "\n",
    "# For the unsigned transaction we use an empty scriptSig\n",
    "scriptsig = bytes.fromhex(\"\")\n",
    "\n",
    "# Use `0xfffffffd` to enable a future rbf cooperative closure round\n",
    "sequence = bytes.fromhex(\"fdff ffff\")\n",
    "\n",
    "inputs = (\n",
    "    txid\n",
    "    + index\n",
    "    + varint_len(scriptsig)\n",
    "    + scriptsig\n",
    "    + sequence\n",
    ")\n",
    "\n",
    "# OUTPUTS\n",
    "# 0x02 for out two outputs\n",
    "output_count = bytes.fromhex(\"02\")\n",
    "\n",
    "# Transaction Fee\n",
    "tx_fee_sat = int(float(\"0.00000300\") * 100000000)\n",
    "\n",
    "# OUTPUT 1 - Back to Alice\n",
    "# 0.005 BTC discounted the fees\n",
    "# In the legacy cooperative closure the channel founder pay the fees\n",
    "# In the new rbf cooperative closure the closer pay the fees\n",
    "output1_value_sat = int(float(\"0.005\") * 100000000) - tx_fee_sat\n",
    "output1_value = output1_value_sat.to_bytes(8, byteorder=\"little\", signed=False)\n",
    "# scriptPubKey P2TR: OP_1 (0x51) + PUSH32 (0x20) + xonly(32B)\n",
    "output1_spk = bytes.fromhex(\"51\") + varint_len(alice_funding_pubkey_b) + alice_funding_pubkey_b\n",
    "\n",
    "# OUTPUT 2 - Back to Bob\n",
    "# 0.005 BTC\n",
    "output2_value_sat = int(float(\"0.005\") * 100000000)\n",
    "output2_value = output2_value_sat.to_bytes(8, byteorder=\"little\", signed=False)\n",
    "# scriptPubKey P2TR: OP_1 (0x51) + PUSH32 (0x20) + xonly(32B)\n",
    "output2_spk = bytes.fromhex(\"51\") + varint_len(bob_funding_pubkey_b) + bob_funding_pubkey_b\n",
    "\n",
    "outputs = (\n",
    "    output1_value\n",
    "    + varint_len(output1_spk)\n",
    "    + output1_spk\n",
    "    + output2_value\n",
    "    + varint_len(output2_spk)\n",
    "    + output2_spk\n",
    ")\n",
    "\n",
    "# LOCKTIME\n",
    "locktime = bytes.fromhex(\"0000 0000\")\n",
    "\n",
    "unsigned_tx = (\n",
    "    version\n",
    "    + input_count\n",
    "    + inputs\n",
    "    + output_count\n",
    "    + outputs\n",
    "    + locktime\n",
    ")\n",
    "print(\"unsigned_tx: \", unsigned_tx.hex())\n",
    "\n",
    "# Decode the unsigned transaction to verify it looks correct\n",
    "decoded = node.decoderawtransaction(unsigned_tx.hex())\n",
    "print(json.dumps(decoded, indent=2, default=str))"
   ]
  },
  {
   "cell_type": "markdown",
   "id": "12bfef47",
   "metadata": {},
   "source": [
    "## The sighash for the key path spend\n",
    "\n",
    "This is the “Schnorr key spend” case: you’re proving knowledge of the (tweaked) internal private key, with no script branch revealed. The message preimage is called msg_digest in [BIP-341](https://github.com/bitcoin/bips/blob/master/bip-0341.mediawiki)."
   ]
  },
  {
   "cell_type": "code",
   "execution_count": 3,
   "id": "4bf95e37",
   "metadata": {},
   "outputs": [],
   "source": [
    "index_of_this_input = bytes.fromhex(\"0000 0000\")\n",
    "\n",
    "# SIGHASH for key path spend\n",
    "# See BIP-341 for details\n",
    "sighash_epoch = bytes.fromhex(\"00\")\n",
    "\n",
    "# Control\n",
    "hash_type = bytes.fromhex(\"00\") # SIGHASH_DEFAULT (a new sighash type meaning implied SIGHASH_ALL)\n",
    "\n",
    "# Transaction data\n",
    "sha_prevouts = sha256(txid + index).digest()\n",
    "\n",
    "input_amounts = channel_value\n",
    "sha_amounts = sha256(input_amounts).digest()\n",
    "\n",
    "# scriptPubKey P2TR: OP_1 (0x51) + PUSH32 (0x20) + xonly(32B)\n",
    "sha_scriptpubkeys = sha256(\n",
    "    varint_len(channel_spk)\n",
    "    + channel_spk\n",
    ").digest()\n",
    "\n",
    "sha_sequences = sha256(sequence).digest()\n",
    "\n",
    "sha_outputs = sha256(outputs).digest()\n",
    "\n",
    "# Data about this input\n",
    "spend_type = bytes.fromhex(\"00\") # no annex present\n",
    "\n",
    "sig_msg = (\n",
    "    sighash_epoch\n",
    "    + hash_type\n",
    "    + version\n",
    "    + locktime\n",
    "    + sha_prevouts\n",
    "    + sha_amounts\n",
    "    + sha_scriptpubkeys\n",
    "    + sha_sequences\n",
    "    + sha_outputs\n",
    "    + spend_type\n",
    "    + index_of_this_input\n",
    ")\n",
    "\n",
    "tag_hash = sha256(\"TapSighash\".encode()).digest()\n",
    "sighash = sha256(tag_hash + tag_hash + sig_msg).digest()\n"
   ]
  },
  {
   "cell_type": "markdown",
   "id": "c1e021d2",
   "metadata": {},
   "source": [
    "## Signing the sighash"
   ]
  },
  {
   "cell_type": "code",
   "execution_count": 4,
   "id": "64031eba",
   "metadata": {},
   "outputs": [
    {
     "name": "stdout",
     "output_type": "stream",
     "text": [
      "aggregated Schnorr verifies? True\n"
     ]
    }
   ],
   "source": [
    "# Build participants to sort them using the same rule used in pubkeys aggregation.\n",
    "participants = [\n",
    "    (pubkey_alice_musig2, privkey_alice_musig2.get_bytes()),\n",
    "    (pubkey_bob_musig2,   privkey_bob_musig2.get_bytes()),\n",
    "]\n",
    "\n",
    "# Reorder participants to match the sorted pubkeys\n",
    "pk_to_tuple = {pk: (pk, sk) for pk, sk in participants}\n",
    "participants = [pk_to_tuple[pk] for pk in sorted_pubkeys]\n",
    "\n",
    "# Alice and Bob generates its own nonce pair (secnonce, pubnonce)\n",
    "secnonces, pubnonces = [], []\n",
    "for pk, sk in participants:\n",
    "    sec, pub = nonce_gen(sk, pk, agg_pubkey_tweaked, sighash, None)\n",
    "    secnonces.append(sec)\n",
    "    pubnonces.append(pub)\n",
    "\n",
    "# Alice and Bob has exchanged already the pubnonces, so they can agregate them and create the session context\n",
    "agg_nonce = nonce_agg(pubnonces)\n",
    "session = SessionContext(agg_nonce, sorted_pubkeys, [bip86_tweak], [True], sighash)\n",
    "\n",
    "# Alice and Bob produces their partial signatures\n",
    "# Partial signatures in the SAME order as pubkeys/participants\n",
    "psigs = [sign(sec, sk, session) for sec, (_, sk) in zip(secnonces, participants)]\n",
    "\n",
    "# Each side verify the other’s partial signature before proceeding\n",
    "for i, psig in enumerate(psigs):\n",
    "    assert partial_sig_verify(psig, pubnonces, sorted_pubkeys, [bip86_tweak], [True], sighash, i)\n",
    "\n",
    "# Each side combines partial signatures into the final Schnorr signature\n",
    "agg_sig = partial_sig_agg(psigs, session)\n",
    "\n",
    "# Sanity check: verify with BIP340 against the *tweaked* x-only key ---\n",
    "ok = schnorr_verify(sighash, agg_pubkey_tweaked, agg_sig)\n",
    "print(\"aggregated Schnorr verifies?\", ok)\n"
   ]
  },
  {
   "cell_type": "markdown",
   "id": "ac45a20e",
   "metadata": {},
   "source": [
    "## The signed transaction"
   ]
  },
  {
   "cell_type": "code",
   "execution_count": 5,
   "id": "81d42a41",
   "metadata": {},
   "outputs": [
    {
     "name": "stdout",
     "output_type": "stream",
     "text": [
      "signed tx:  020000000001013140059728f19a1d8f47630ab97c2898f64370b8c75178a962b1a6a7aebc0afb0000000000fdffffff02f49f070000000000225120b3b2d6aa306f7c72de75aa03c4ebb9d1d58f57d5094014ce18c150dcd3b7927020a107000000000022512094a9668cc194c84e9aa972cda15848dc14f44e764d2941c1d37b166a60d5cb140140e98a0f0cf7a9fd3cb9b1fbc14adafcce4dad895aebff69bd412dbc580b82024ba0e3b088a9a22c98028e654e9010a82f19d4733d96bec42274e2fc2f0d0b0fa700000000\n",
      "{\n",
      "  \"txid\": \"e2ca97378e285b9ff364a231d4ecc82078acdde7f6d060602bbd0b4cd03acc77\",\n",
      "  \"hash\": \"4c232fcb1b4d2c46f11a57dfcfc41611a92d55aa41db5e0afeb925211ccab47e\",\n",
      "  \"version\": 2,\n",
      "  \"size\": 205,\n",
      "  \"vsize\": 154,\n",
      "  \"weight\": 616,\n",
      "  \"locktime\": 0,\n",
      "  \"vin\": [\n",
      "    {\n",
      "      \"txid\": \"fb0abcaea7a6b162a97851c7b87043f698287cb90a63478f1d9af12897054031\",\n",
      "      \"vout\": 0,\n",
      "      \"scriptSig\": {\n",
      "        \"asm\": \"\",\n",
      "        \"hex\": \"\"\n",
      "      },\n",
      "      \"txinwitness\": [\n",
      "        \"e98a0f0cf7a9fd3cb9b1fbc14adafcce4dad895aebff69bd412dbc580b82024ba0e3b088a9a22c98028e654e9010a82f19d4733d96bec42274e2fc2f0d0b0fa7\"\n",
      "      ],\n",
      "      \"sequence\": 4294967293\n",
      "    }\n",
      "  ],\n",
      "  \"vout\": [\n",
      "    {\n",
      "      \"value\": \"0.00499700\",\n",
      "      \"n\": 0,\n",
      "      \"scriptPubKey\": {\n",
      "        \"asm\": \"1 b3b2d6aa306f7c72de75aa03c4ebb9d1d58f57d5094014ce18c150dcd3b79270\",\n",
      "        \"desc\": \"rawtr(b3b2d6aa306f7c72de75aa03c4ebb9d1d58f57d5094014ce18c150dcd3b79270)#mf3gq9vk\",\n",
      "        \"hex\": \"5120b3b2d6aa306f7c72de75aa03c4ebb9d1d58f57d5094014ce18c150dcd3b79270\",\n",
      "        \"address\": \"bcrt1pkwedd23sda789hn44gpuf6ae682c7474p9qpfnscc9gde5ahjfcqagye0g\",\n",
      "        \"type\": \"witness_v1_taproot\"\n",
      "      }\n",
      "    },\n",
      "    {\n",
      "      \"value\": \"0.00500000\",\n",
      "      \"n\": 1,\n",
      "      \"scriptPubKey\": {\n",
      "        \"asm\": \"1 94a9668cc194c84e9aa972cda15848dc14f44e764d2941c1d37b166a60d5cb14\",\n",
      "        \"desc\": \"rawtr(94a9668cc194c84e9aa972cda15848dc14f44e764d2941c1d37b166a60d5cb14)#5y9qs722\",\n",
      "        \"hex\": \"512094a9668cc194c84e9aa972cda15848dc14f44e764d2941c1d37b166a60d5cb14\",\n",
      "        \"address\": \"bcrt1pjj5kdrxpjnyyax4fwtx6zkzgms20gnnkf555rswn0vtx5cx4ev2qqd92yf\",\n",
      "        \"type\": \"witness_v1_taproot\"\n",
      "      }\n",
      "    }\n",
      "  ]\n",
      "}\n",
      "coopclose_txid:  e2ca97378e285b9ff364a231d4ecc82078acdde7f6d060602bbd0b4cd03acc77\n"
     ]
    }
   ],
   "source": [
    "witness = (\n",
    "    bytes.fromhex(\"01\") # one stack item in the witness\n",
    "    + varint_len(agg_sig)\n",
    "    + agg_sig\n",
    ")\n",
    "\n",
    "# the final signed transaction\n",
    "signed_tx = (\n",
    "    version\n",
    "    + marker\n",
    "    + flag\n",
    "    + input_count\n",
    "    + inputs\n",
    "    + output_count\n",
    "    + outputs\n",
    "    + witness\n",
    "    + locktime\n",
    ")\n",
    "\n",
    "print(\"signed tx: \",signed_tx.hex())\n",
    "# Decode the unsigned transaction to verify it looks correct\n",
    "decoded = node.decoderawtransaction(signed_tx.hex())\n",
    "print(json.dumps(decoded, indent=2, default=str))\n",
    "\n",
    "coopclose_txid = node.sendrawtransaction(signed_tx.hex())\n",
    "result = node.generatetoaddress(nblocks=1, address=address, called_by_framework=True)\n",
    "\n",
    "print(\"coopclose_txid: \", coopclose_txid)"
   ]
  },
  {
   "cell_type": "code",
   "execution_count": null,
   "id": "6a1214b9",
   "metadata": {},
   "outputs": [],
   "source": []
  },
  {
   "cell_type": "code",
   "execution_count": null,
   "id": "1ef30ff8",
   "metadata": {},
   "outputs": [],
   "source": []
  }
 ],
 "metadata": {
  "kernelspec": {
   "display_name": "Python 3 (ipykernel)",
   "language": "python",
   "name": "python3"
  },
  "language_info": {
   "codemirror_mode": {
    "name": "ipython",
    "version": 3
   },
   "file_extension": ".py",
   "mimetype": "text/x-python",
   "name": "python",
   "nbconvert_exporter": "python",
   "pygments_lexer": "ipython3",
   "version": "3.12.3"
  }
 },
 "nbformat": 4,
 "nbformat_minor": 5
}
