{
 "cells": [
  {
   "cell_type": "markdown",
   "id": "803c7040",
   "metadata": {},
   "source": [
    "# Creating a Collaborative Closing Transaction\n",
    "\n",
    "In this section, we'll build a Lightning channel closing transaction from scratch using Python. We'll walk through each part of the transaction — how it's constructed, signed, and the messages exchanged between peers to coordinate the close. The process will be tested using Bitcoin Core in regtest mode."
   ]
  },
  {
   "cell_type": "markdown",
   "id": "b654c232",
   "metadata": {},
   "source": [
    "## Setup\n",
    "\n",
    "For this notebook, we’ll use the Chapter 1 – Channel Funding Transaction, where the funding transaction was created and confirmed on our regtest blockchain."
   ]
  },
  {
   "cell_type": "code",
   "execution_count": 1,
   "id": "302113b9",
   "metadata": {
    "vscode": {
     "languageId": "plaintext"
    }
   },
   "outputs": [
    {
     "name": "stdout",
     "output_type": "stream",
     "text": [
      "2025-08-30T00:36:01.171000Z TestFramework (INFO): PRNG seed is: 5423168156992911971\n",
      "2025-08-30T00:36:01.172000Z TestFramework (INFO): Initializing test directory /tmp/bitcoin_func_test_o_s0hjo0\n",
      "Alice funding pubkey: 150e1c6f6c0469d45bcc3dc200674edf6817e7eb33686e471b05b84899b8326f\n",
      "Alice funding privkey: b0c9d682325bebdbd7ab0f0bb2e9ab6ed844b299c8431a5238dbf0bddd92cf46\n",
      "Alice funding address: bcrt1pz58pcmmvq35agk7v8hpqqe6wma5p0eltxd5xu3cmqkuy3xdcxfhs5s7vpl\n",
      "Bob funding pubkey: 056f58d227cd81e34d60fa09e4043249b418193e1b9a8e4ec98f99ac5a0f9a04\n",
      "Bob funding privkey: 3e35c91e86c96df7251e2deabac16866d6074f7e1da7c8be4af5906e4d4dd673\n",
      "Bob funding address: bcrt1pq4h43538ekq7xntqlgy7gppjfx6psxf7rwdgunkf37v6cks0ngzqrekcq6\n",
      "Transaction creating Alice UTXO: edf8eb3e7368b89283fb3a8d0a3f3a3c58f242dbcf1f62f0d78d7ad604d93856\n",
      "{\n",
      "  \"txid\": \"edf8eb3e7368b89283fb3a8d0a3f3a3c58f242dbcf1f62f0d78d7ad604d93856\",\n",
      "  \"hash\": \"f46b3bee2a31b35fac5efe668bab2735e26b778f6f626f0aeeb38a53dc50aa23\",\n",
      "  \"version\": 2,\n",
      "  \"size\": 289,\n",
      "  \"vsize\": 208,\n",
      "  \"weight\": 829,\n",
      "  \"locktime\": 101,\n",
      "  \"vin\": [\n",
      "    {\n",
      "      \"txid\": \"2bcc70d6379d0b7f1cfd7023aea8cb8f6b3d2f06208eab0fe7f7c1e7d07d6ad4\",\n",
      "      \"vout\": 0,\n",
      "      \"scriptSig\": {\n",
      "        \"asm\": \"\",\n",
      "        \"hex\": \"\"\n",
      "      },\n",
      "      \"txinwitness\": [\n",
      "        \"3044022014641e5572bef43c4bdf9af3805409d9edb1fbf3c83f098bb08f103eb556e673022068facd8aa6a9427f5efe14c77f9410d7c716d1a17f25158bc8c25c7c360028e701\",\n",
      "        \"0327ef94f5208b19c289d36b89f76c06b0dbd28c99d7649c1b2485eb7cad632a72\"\n",
      "      ],\n",
      "      \"sequence\": 4294967293\n",
      "    }\n",
      "  ],\n",
      "  \"vout\": [\n",
      "    {\n",
      "      \"value\": \"47.99995840\",\n",
      "      \"n\": 0,\n",
      "      \"scriptPubKey\": {\n",
      "        \"asm\": \"1 7dd0935d6e82bf7583ccb6e437be00e44c34919bfd9a4712ad6f1e1aff8f72a8\",\n",
      "        \"desc\": \"rawtr(7dd0935d6e82bf7583ccb6e437be00e44c34919bfd9a4712ad6f1e1aff8f72a8)#fmjuy4fw\",\n",
      "        \"hex\": \"51207dd0935d6e82bf7583ccb6e437be00e44c34919bfd9a4712ad6f1e1aff8f72a8\",\n",
      "        \"address\": \"bcrt1p0hgfxhtws2lhtq7vkmjr00squ3xrfyvmlkdywy4ddu0p4lu0w25q9ez47g\",\n",
      "        \"type\": \"witness_v1_taproot\"\n",
      "      }\n",
      "    },\n",
      "    {\n",
      "      \"value\": \"1.00000000\",\n",
      "      \"n\": 1,\n",
      "      \"scriptPubKey\": {\n",
      "        \"asm\": \"1 056f58d227cd81e34d60fa09e4043249b418193e1b9a8e4ec98f99ac5a0f9a04\",\n",
      "        \"desc\": \"rawtr(056f58d227cd81e34d60fa09e4043249b418193e1b9a8e4ec98f99ac5a0f9a04)#d59n4avm\",\n",
      "        \"hex\": \"5120056f58d227cd81e34d60fa09e4043249b418193e1b9a8e4ec98f99ac5a0f9a04\",\n",
      "        \"address\": \"bcrt1pq4h43538ekq7xntqlgy7gppjfx6psxf7rwdgunkf37v6cks0ngzqrekcq6\",\n",
      "        \"type\": \"witness_v1_taproot\"\n",
      "      }\n",
      "    },\n",
      "    {\n",
      "      \"value\": \"1.00000000\",\n",
      "      \"n\": 2,\n",
      "      \"scriptPubKey\": {\n",
      "        \"asm\": \"1 150e1c6f6c0469d45bcc3dc200674edf6817e7eb33686e471b05b84899b8326f\",\n",
      "        \"desc\": \"rawtr(150e1c6f6c0469d45bcc3dc200674edf6817e7eb33686e471b05b84899b8326f)#rezdjpq0\",\n",
      "        \"hex\": \"5120150e1c6f6c0469d45bcc3dc200674edf6817e7eb33686e471b05b84899b8326f\",\n",
      "        \"address\": \"bcrt1pz58pcmmvq35agk7v8hpqqe6wma5p0eltxd5xu3cmqkuy3xdcxfhs5s7vpl\",\n",
      "        \"type\": \"witness_v1_taproot\"\n",
      "      }\n",
      "    }\n",
      "  ],\n",
      "  \"hex\": \"02000000000101d46a7dd0e7c1f7e70fab8e20062f3d6b8fcba8ae2370fd1c7f0b9d37d670cc2b0000000000fdffffff03c01f1a1e010000002251207dd0935d6e82bf7583ccb6e437be00e44c34919bfd9a4712ad6f1e1aff8f72a800e1f50500000000225120056f58d227cd81e34d60fa09e4043249b418193e1b9a8e4ec98f99ac5a0f9a0400e1f50500000000225120150e1c6f6c0469d45bcc3dc200674edf6817e7eb33686e471b05b84899b8326f02473044022014641e5572bef43c4bdf9af3805409d9edb1fbf3c83f098bb08f103eb556e673022068facd8aa6a9427f5efe14c77f9410d7c716d1a17f25158bc8c25c7c360028e701210327ef94f5208b19c289d36b89f76c06b0dbd28c99d7649c1b2485eb7cad632a7265000000\"\n",
      "}\n",
      "Alice transaction to spend: edf8eb3e7368b89283fb3a8d0a3f3a3c58f242dbcf1f62f0d78d7ad604d93856:2\n",
      "Alice funding pubkey: 9f6d3383e0a43db9c1e05cf9ecca1147e7bc2c0353289a6d04c4978a8373b2f1\n",
      "Alice funding privkey: ef131f3729a323e266d71395e88ed0519d9e8b5cd694b971bf6d9bf5b9230116\n",
      "Alice funding address: bcrt1pnakn8qlq5s7mns0qtnu7ejs3glnmctqr2v5f5mgycjtc4qmnktcsjud0wu\n",
      "Alice MuSig pubkey: fd69cde612f3427b5d3f87873e3e89c247bebce063bb2df02299409b049d706c\n",
      "Alice MuSig privkey: f35bad1a9f1d9d98499e1283cdb472ca33a031295fe18b80b3b42af4802453d5\n",
      "Bob MuSig pubkey: 4f785d36423239bc0ea8766b582c3ef5eedb526abb2e8a07a59ec0e888b8790a\n",
      "Bob MuSig privkey: 5066f358fc075bcda11457ee0d045cb7c7bda6e934dbc2d2dbf7a515a0c20c3e\n",
      "Aggregate musig pubkey: 9bb3e6db0d3f0e28b52603f669c95e5a8a5ceafd61ce09dd9f176c9b3ec6a9ba\n",
      "Tweaked aggregate musig pubkey: cddc80995ef26165b98b7f7ff5bfff9551c6847d8fbdfde28fde8a3a25092865\n",
      "Channel funding musig output address: bcrt1pehwgpx277fsktwvt0allt0llj4gudpra377lmc50m69r5fgf9pjsr7lfmk\n",
      "unsigned_tx:  02000000015638d904d67a8dd7f0621fcfdb42f2583c3a3f0a8d3afb8392b868733eebf8ed0200000000ffffffff0240420f0000000000225120cddc80995ef26165b98b7f7ff5bfff9551c6847d8fbdfde28fde8a3a25092865949de605000000002251209f6d3383e0a43db9c1e05cf9ecca1147e7bc2c0353289a6d04c4978a8373b2f100000000\n",
      "{\n",
      "  \"txid\": \"d51d4e3bdee59503c4dfbb62f7176ac12da560bdd49b12e737fdea7b9b3cc30c\",\n",
      "  \"hash\": \"d51d4e3bdee59503c4dfbb62f7176ac12da560bdd49b12e737fdea7b9b3cc30c\",\n",
      "  \"version\": 2,\n",
      "  \"size\": 137,\n",
      "  \"vsize\": 137,\n",
      "  \"weight\": 548,\n",
      "  \"locktime\": 0,\n",
      "  \"vin\": [\n",
      "    {\n",
      "      \"txid\": \"edf8eb3e7368b89283fb3a8d0a3f3a3c58f242dbcf1f62f0d78d7ad604d93856\",\n",
      "      \"vout\": 2,\n",
      "      \"scriptSig\": {\n",
      "        \"asm\": \"\",\n",
      "        \"hex\": \"\"\n",
      "      },\n",
      "      \"sequence\": 4294967295\n",
      "    }\n",
      "  ],\n",
      "  \"vout\": [\n",
      "    {\n",
      "      \"value\": \"0.01000000\",\n",
      "      \"n\": 0,\n",
      "      \"scriptPubKey\": {\n",
      "        \"asm\": \"1 cddc80995ef26165b98b7f7ff5bfff9551c6847d8fbdfde28fde8a3a25092865\",\n",
      "        \"desc\": \"rawtr(cddc80995ef26165b98b7f7ff5bfff9551c6847d8fbdfde28fde8a3a25092865)#srmtgauk\",\n",
      "        \"hex\": \"5120cddc80995ef26165b98b7f7ff5bfff9551c6847d8fbdfde28fde8a3a25092865\",\n",
      "        \"address\": \"bcrt1pehwgpx277fsktwvt0allt0llj4gudpra377lmc50m69r5fgf9pjsr7lfmk\",\n",
      "        \"type\": \"witness_v1_taproot\"\n",
      "      }\n",
      "    },\n",
      "    {\n",
      "      \"value\": \"0.98999700\",\n",
      "      \"n\": 1,\n",
      "      \"scriptPubKey\": {\n",
      "        \"asm\": \"1 9f6d3383e0a43db9c1e05cf9ecca1147e7bc2c0353289a6d04c4978a8373b2f1\",\n",
      "        \"desc\": \"rawtr(9f6d3383e0a43db9c1e05cf9ecca1147e7bc2c0353289a6d04c4978a8373b2f1)#0nqfpu7z\",\n",
      "        \"hex\": \"51209f6d3383e0a43db9c1e05cf9ecca1147e7bc2c0353289a6d04c4978a8373b2f1\",\n",
      "        \"address\": \"bcrt1pnakn8qlq5s7mns0qtnu7ejs3glnmctqr2v5f5mgycjtc4qmnktcsjud0wu\",\n",
      "        \"type\": \"witness_v1_taproot\"\n",
      "      }\n",
      "    }\n",
      "  ]\n",
      "}\n",
      "0140667a7f5e18854d4869793677e892259332b11cb6c04e2179faf2f4d42d7fc132fdd5d2054acac902c563981d894d6065744ba48ba51aea96a6f9cb5da5f7a851\n",
      "signed tx:  020000000001015638d904d67a8dd7f0621fcfdb42f2583c3a3f0a8d3afb8392b868733eebf8ed0200000000ffffffff0240420f0000000000225120cddc80995ef26165b98b7f7ff5bfff9551c6847d8fbdfde28fde8a3a25092865949de605000000002251209f6d3383e0a43db9c1e05cf9ecca1147e7bc2c0353289a6d04c4978a8373b2f10140667a7f5e18854d4869793677e892259332b11cb6c04e2179faf2f4d42d7fc132fdd5d2054acac902c563981d894d6065744ba48ba51aea96a6f9cb5da5f7a85100000000\n",
      "{\n",
      "  \"txid\": \"d51d4e3bdee59503c4dfbb62f7176ac12da560bdd49b12e737fdea7b9b3cc30c\",\n",
      "  \"hash\": \"14f9f7aa701d60aab0a976eadda8e08e4acd555562013baccda58be296fe755b\",\n",
      "  \"version\": 2,\n",
      "  \"size\": 205,\n",
      "  \"vsize\": 154,\n",
      "  \"weight\": 616,\n",
      "  \"locktime\": 0,\n",
      "  \"vin\": [\n",
      "    {\n",
      "      \"txid\": \"edf8eb3e7368b89283fb3a8d0a3f3a3c58f242dbcf1f62f0d78d7ad604d93856\",\n",
      "      \"vout\": 2,\n",
      "      \"scriptSig\": {\n",
      "        \"asm\": \"\",\n",
      "        \"hex\": \"\"\n",
      "      },\n",
      "      \"txinwitness\": [\n",
      "        \"667a7f5e18854d4869793677e892259332b11cb6c04e2179faf2f4d42d7fc132fdd5d2054acac902c563981d894d6065744ba48ba51aea96a6f9cb5da5f7a851\"\n",
      "      ],\n",
      "      \"sequence\": 4294967295\n",
      "    }\n",
      "  ],\n",
      "  \"vout\": [\n",
      "    {\n",
      "      \"value\": \"0.01000000\",\n",
      "      \"n\": 0,\n",
      "      \"scriptPubKey\": {\n",
      "        \"asm\": \"1 cddc80995ef26165b98b7f7ff5bfff9551c6847d8fbdfde28fde8a3a25092865\",\n",
      "        \"desc\": \"rawtr(cddc80995ef26165b98b7f7ff5bfff9551c6847d8fbdfde28fde8a3a25092865)#srmtgauk\",\n",
      "        \"hex\": \"5120cddc80995ef26165b98b7f7ff5bfff9551c6847d8fbdfde28fde8a3a25092865\",\n",
      "        \"address\": \"bcrt1pehwgpx277fsktwvt0allt0llj4gudpra377lmc50m69r5fgf9pjsr7lfmk\",\n",
      "        \"type\": \"witness_v1_taproot\"\n",
      "      }\n",
      "    },\n",
      "    {\n",
      "      \"value\": \"0.98999700\",\n",
      "      \"n\": 1,\n",
      "      \"scriptPubKey\": {\n",
      "        \"asm\": \"1 9f6d3383e0a43db9c1e05cf9ecca1147e7bc2c0353289a6d04c4978a8373b2f1\",\n",
      "        \"desc\": \"rawtr(9f6d3383e0a43db9c1e05cf9ecca1147e7bc2c0353289a6d04c4978a8373b2f1)#0nqfpu7z\",\n",
      "        \"hex\": \"51209f6d3383e0a43db9c1e05cf9ecca1147e7bc2c0353289a6d04c4978a8373b2f1\",\n",
      "        \"address\": \"bcrt1pnakn8qlq5s7mns0qtnu7ejs3glnmctqr2v5f5mgycjtc4qmnktcsjud0wu\",\n",
      "        \"type\": \"witness_v1_taproot\"\n",
      "      }\n",
      "    }\n",
      "  ]\n",
      "}\n",
      "[{'txid': 'd51d4e3bdee59503c4dfbb62f7176ac12da560bdd49b12e737fdea7b9b3cc30c', 'wtxid': '14f9f7aa701d60aab0a976eadda8e08e4acd555562013baccda58be296fe755b', 'allowed': True, 'vsize': 154, 'fees': {'base': Decimal('0.00000300'), 'effective-feerate': Decimal('0.00001948'), 'effective-includes': ['14f9f7aa701d60aab0a976eadda8e08e4acd555562013baccda58be296fe755b']}}]\n"
     ]
    }
   ],
   "source": [
    "# run notebook\n",
    "%run \"/home/pins-dev/Projects/Taproot-Lightning-Channels-Workshop/chapter 1 - channel funding transaction/funding-transaction.ipynb\""
   ]
  },
  {
   "cell_type": "markdown",
   "id": "f07e5747",
   "metadata": {},
   "source": [
    "### Legacy cooperative closure\n",
    "\n",
    "Compared to the base segwit v0 channel type, for simple taproot channels, the co-op close transaction now always signals RBF. In other words, the sequence field of the sole input to the cooperative close transaction MUST be less-than-or-equal to 0xfffffffd. This enables a future cooperative closure flow to support increasing the fee of subsequent close offers via RBF.\n",
    "\n",
    "In addition, rather than adopt the existing cooperative closure fee rate \"negotiation\", the responder SHOULD now always accept the offer sent by the initiator. In other words, the cooperative close process now terminates after exactly 1 RTTs: initiator sends sigs with offer, with the responder echo'ing back the same fee rate. This serves to ensure that the co-op close process always terminates deterministically, and also plays nicer with the nonces: only a single message is ever signed by both sides for a coop close workflow.\n",
    "\n",
    "    +-----------+                                        +---------+\n",
    "    |           |--(1)-------- shutdown_nonce ---------->|         |\n",
    "    |           |<-(2)-------- shutdown_nonce -----------|         |\n",
    "    |           |                                        |         |\n",
    "    |   Alice   |--(3)-- closing_signed (partial_sig) -->|   Bob   |\n",
    "    |           |<-(4)-- closing_signed (partial_sig) ---|         |\n",
    "    |           |                                        |         |\n",
    "    |           |                                        |         |\n",
    "    |           |                                        |         |\n",
    "    +-----------+                                        +---------+\n",
    "\n",
    "### Modern RBF-based cooperative close\n",
    "\n",
    "For taproot channels supporting RBF cooperative close, nonces are delivered just-in-time (JIT) with signatures using an asymmetric pattern:\n",
    "\n",
    "Initial Exchange: Nonces are exchanged in shutdown messages\n",
    "\n",
    "Each party sends their \"closee nonce\" - the nonce they'll use when signing as the closee. This nonce is used by the remote party when they act as closer\n",
    "\n",
    "#### RBF Iterations: Subsequent nonces are delivered with signatures\n",
    "\n",
    "* closing_complete (from closer): uses partial_sig_w_nonce bundles the partial signature with the sender's closer nonce. The bundling is necessary because the closee doesn't know this nonce yet.\n",
    "\n",
    "* closing_sig (from closee): uses partial_sig plus nonce (NextCloseeNonce) field\n",
    "\n",
    "Asymmetric Roles:\n",
    "\n",
    "* Closer: The party sending closing_complete, proposing a new fee\n",
    "* Closee: The party sending closing_sig, accepting the fee proposal\n",
    "\n",
    "Each party alternates between these roles during RBF iterations.\n",
    "\n",
    "    +-----------+                                                +---------+\n",
    "    |           |--(1)------------- shutdown_nonce ------------->|         |\n",
    "    |           |<-(2)------------- shutdown_nonce --------------|         |\n",
    "    |           |                                                |         |\n",
    "    |   Alice   |--(3)- closing_complete (partial_sig_w_nonce) ->|   Bob   |\n",
    "    |           |<-(4)---- closing_sig (partial_sig) (nonce)-----|         |\n",
    "    |           |                                                |         |\n",
    "    |           |<-(5)- closing_complete (partial_sig_w_nonce) ->|         |\n",
    "    |           |--(6)---- closing_sig (partial_sig) (nonce)---->|         |\n",
    "    |           |                                                |         |\n",
    "    +-----------+                                                +---------+\n",
    "\n"
   ]
  }
 ],
 "metadata": {
  "kernelspec": {
   "display_name": "Python 3 (ipykernel)",
   "language": "python",
   "name": "python3"
  },
  "language_info": {
   "codemirror_mode": {
    "name": "ipython",
    "version": 3
   },
   "file_extension": ".py",
   "mimetype": "text/x-python",
   "name": "python",
   "nbconvert_exporter": "python",
   "pygments_lexer": "ipython3",
   "version": "3.12.3"
  }
 },
 "nbformat": 4,
 "nbformat_minor": 5
}
