{
 "cells": [
  {
   "cell_type": "markdown",
   "id": "803c7040",
   "metadata": {},
   "source": [
    "# Creating a Collaborative Closing Transaction\n",
    "\n",
    "In this section, we'll build a Lightning channel closing transaction from scratch using Python. We'll walk through each part of the transaction — how it's constructed, signed, and the messages exchanged between peers to coordinate the close. The process will be tested using Bitcoin Core in regtest mode."
   ]
  },
  {
   "cell_type": "markdown",
   "id": "b654c232",
   "metadata": {},
   "source": [
    "## Setup\n",
    "\n",
    "For this notebook, we’ll use the Chapter 1 – Channel Funding Transaction, where the funding transaction was created and confirmed on our regtest blockchain."
   ]
  },
  {
   "cell_type": "code",
   "execution_count": 1,
   "id": "302113b9",
   "metadata": {
    "vscode": {
     "languageId": "plaintext"
    }
   },
   "outputs": [
    {
     "name": "stdout",
     "output_type": "stream",
     "text": [
      "2025-09-07T17:42:00.040000Z TestFramework (INFO): PRNG seed is: 7597397052372604182\n",
      "2025-09-07T17:42:00.042000Z TestFramework (INFO): Initializing test directory /tmp/bitcoin_func_test_9mimiyz_\n",
      "Alice funding pubkey: aa98c9adc0711168c1652272c54942e301e9fe53ada7cb0598b5a471da8c148c\n",
      "Alice funding privkey: ef3bef5ca0304922311bf8679c4f47760198a08f4c46c95fd4ae9a426d199de2\n",
      "Alice funding address: bcrt1p42vvntwqwygk3st9yfev2j2zuvq7nljn4knukpvckkj8rk5vzjxqja98td\n",
      "Bob funding pubkey: 8da36ea99cd6a7bf02a099cbc3e35daf1683d56ffceda08538f4424e80502d27\n",
      "Bob funding privkey: 9f975c258521f096a54ac3389fba9dd21f2ec522be3b8c82c77ef2491b4ac51d\n",
      "Bob funding address: bcrt1p3k3ka2vu66nm7q4qn89u8c6a4utg84t0lnk6ppfc73pyaqzs95nsrsxy66\n",
      "Transaction creating Alice UTXO: f55d8bbf6a57bb312440013757f4c2ba791ccdd4713d50120030e49bf3685738\n",
      "{\n",
      "  \"txid\": \"f55d8bbf6a57bb312440013757f4c2ba791ccdd4713d50120030e49bf3685738\",\n",
      "  \"hash\": \"742a0db8ef1888f1145cfbad61e9cc70a4b413633acd75bba92eda44067f77ca\",\n",
      "  \"version\": 2,\n",
      "  \"size\": 289,\n",
      "  \"vsize\": 208,\n",
      "  \"weight\": 829,\n",
      "  \"locktime\": 101,\n",
      "  \"vin\": [\n",
      "    {\n",
      "      \"txid\": \"26773f674b74794091ccb2b2eb4ec50a69117497e9c3e75568dfe778c64785c4\",\n",
      "      \"vout\": 0,\n",
      "      \"scriptSig\": {\n",
      "        \"asm\": \"\",\n",
      "        \"hex\": \"\"\n",
      "      },\n",
      "      \"txinwitness\": [\n",
      "        \"304402203a1e65678ad1d45270eb69567acd1bfc4c954a41c69897208a779ac3d94af27202204b5661cd6f98d98ae277caa85f84a4970be2bf429bb33f01a05e0c05f1cea08301\",\n",
      "        \"025057e845f48bae388be78125b811f11df893ff29af654d378bb5a3bb706fee65\"\n",
      "      ],\n",
      "      \"sequence\": 4294967293\n",
      "    }\n",
      "  ],\n",
      "  \"vout\": [\n",
      "    {\n",
      "      \"value\": \"47.99995840\",\n",
      "      \"n\": 0,\n",
      "      \"scriptPubKey\": {\n",
      "        \"asm\": \"1 fd716784a8d4672b59b4e07e8ba485c1f1cbbeca992c7e8c577d14ed3c2f2299\",\n",
      "        \"desc\": \"rawtr(fd716784a8d4672b59b4e07e8ba485c1f1cbbeca992c7e8c577d14ed3c2f2299)#qftgtzlq\",\n",
      "        \"hex\": \"5120fd716784a8d4672b59b4e07e8ba485c1f1cbbeca992c7e8c577d14ed3c2f2299\",\n",
      "        \"address\": \"bcrt1pl4ck0p9g63njkkd5uplghfy9c8cuh0k2nyk8arzh052w60p0y2vsf22t04\",\n",
      "        \"type\": \"witness_v1_taproot\"\n",
      "      }\n",
      "    },\n",
      "    {\n",
      "      \"value\": \"1.00000000\",\n",
      "      \"n\": 1,\n",
      "      \"scriptPubKey\": {\n",
      "        \"asm\": \"1 aa98c9adc0711168c1652272c54942e301e9fe53ada7cb0598b5a471da8c148c\",\n",
      "        \"desc\": \"rawtr(aa98c9adc0711168c1652272c54942e301e9fe53ada7cb0598b5a471da8c148c)#sg9v0lzw\",\n",
      "        \"hex\": \"5120aa98c9adc0711168c1652272c54942e301e9fe53ada7cb0598b5a471da8c148c\",\n",
      "        \"address\": \"bcrt1p42vvntwqwygk3st9yfev2j2zuvq7nljn4knukpvckkj8rk5vzjxqja98td\",\n",
      "        \"type\": \"witness_v1_taproot\"\n",
      "      }\n",
      "    },\n",
      "    {\n",
      "      \"value\": \"1.00000000\",\n",
      "      \"n\": 2,\n",
      "      \"scriptPubKey\": {\n",
      "        \"asm\": \"1 8da36ea99cd6a7bf02a099cbc3e35daf1683d56ffceda08538f4424e80502d27\",\n",
      "        \"desc\": \"rawtr(8da36ea99cd6a7bf02a099cbc3e35daf1683d56ffceda08538f4424e80502d27)#kafepqjt\",\n",
      "        \"hex\": \"51208da36ea99cd6a7bf02a099cbc3e35daf1683d56ffceda08538f4424e80502d27\",\n",
      "        \"address\": \"bcrt1p3k3ka2vu66nm7q4qn89u8c6a4utg84t0lnk6ppfc73pyaqzs95nsrsxy66\",\n",
      "        \"type\": \"witness_v1_taproot\"\n",
      "      }\n",
      "    }\n",
      "  ],\n",
      "  \"hex\": \"02000000000101c48547c678e7df6855e7c3e9977411690ac54eebb2b2cc914079744b673f77260000000000fdffffff03c01f1a1e01000000225120fd716784a8d4672b59b4e07e8ba485c1f1cbbeca992c7e8c577d14ed3c2f229900e1f50500000000225120aa98c9adc0711168c1652272c54942e301e9fe53ada7cb0598b5a471da8c148c00e1f505000000002251208da36ea99cd6a7bf02a099cbc3e35daf1683d56ffceda08538f4424e80502d270247304402203a1e65678ad1d45270eb69567acd1bfc4c954a41c69897208a779ac3d94af27202204b5661cd6f98d98ae277caa85f84a4970be2bf429bb33f01a05e0c05f1cea0830121025057e845f48bae388be78125b811f11df893ff29af654d378bb5a3bb706fee6565000000\"\n",
      "}\n",
      "Alice transaction to spend: f55d8bbf6a57bb312440013757f4c2ba791ccdd4713d50120030e49bf3685738:1\n",
      "Alice funding pubkey: b041953c320d5c082a4750666b26449bf1cd09a28845e642540b6233230e5b25\n",
      "Alice funding privkey: 533a3b11cfcaa96af1ffa25e7b3d74f399af623c154805d67cbeb9110ba0cf5d\n",
      "Alice funding address: bcrt1pkpqe20pjp4wqs2j82pnxkfjyn0cu6zdz3pz7vsj5pd3rxgcwtvjszn7v7s\n",
      "Alice MuSig2 pubkey: 0282264267172144b0b6912b788e33c21563cd1194c4c6565dfc04495b98976478\n",
      "Alice MuSig2 privkey: a5b2e9d2157ab53f60a1ebcbdc38f207903242fab17f3112510b48c629efc9be\n",
      "Bob MuSig2 pubkey: 02ea091f3a152bd83704660fd3ea0f3cc9b057429c6d24e553539214ff8d8cb4f2\n",
      "Bob MuSig2 privkey: 472eda03a61369d80671fb0066b8d07ca25e9211daddc40a4a29153a62158f90\n",
      "Aggregate musig2 pubkey: b65a654b30e1b3c32a5d0dcd07cb038eea736ab5efa5a5df6b8a1cf822aecfa6\n",
      "Channel funding musig2 output address: bcrt1pkedx2jesuxeux2japhxs0jcr3m48x644a7j6thmt3gw0sg4we7nqfgh55s\n",
      "unsigned_tx:  0200000001385768f39be4300012503d71d4cd1c79bac2f4573701402431bb576abf8b5df50100000000ffffffff0240420f0000000000225120b65a654b30e1b3c32a5d0dcd07cb038eea736ab5efa5a5df6b8a1cf822aecfa6949de60500000000225120b041953c320d5c082a4750666b26449bf1cd09a28845e642540b6233230e5b2500000000\n",
      "{\n",
      "  \"txid\": \"b6e55a543b939f2e9140b0d4e7475fecba613144b2a865b741858808529e9df2\",\n",
      "  \"hash\": \"b6e55a543b939f2e9140b0d4e7475fecba613144b2a865b741858808529e9df2\",\n",
      "  \"version\": 2,\n",
      "  \"size\": 137,\n",
      "  \"vsize\": 137,\n",
      "  \"weight\": 548,\n",
      "  \"locktime\": 0,\n",
      "  \"vin\": [\n",
      "    {\n",
      "      \"txid\": \"f55d8bbf6a57bb312440013757f4c2ba791ccdd4713d50120030e49bf3685738\",\n",
      "      \"vout\": 1,\n",
      "      \"scriptSig\": {\n",
      "        \"asm\": \"\",\n",
      "        \"hex\": \"\"\n",
      "      },\n",
      "      \"sequence\": 4294967295\n",
      "    }\n",
      "  ],\n",
      "  \"vout\": [\n",
      "    {\n",
      "      \"value\": \"0.01000000\",\n",
      "      \"n\": 0,\n",
      "      \"scriptPubKey\": {\n",
      "        \"asm\": \"1 b65a654b30e1b3c32a5d0dcd07cb038eea736ab5efa5a5df6b8a1cf822aecfa6\",\n",
      "        \"desc\": \"rawtr(b65a654b30e1b3c32a5d0dcd07cb038eea736ab5efa5a5df6b8a1cf822aecfa6)#yl9yphsa\",\n",
      "        \"hex\": \"5120b65a654b30e1b3c32a5d0dcd07cb038eea736ab5efa5a5df6b8a1cf822aecfa6\",\n",
      "        \"address\": \"bcrt1pkedx2jesuxeux2japhxs0jcr3m48x644a7j6thmt3gw0sg4we7nqfgh55s\",\n",
      "        \"type\": \"witness_v1_taproot\"\n",
      "      }\n",
      "    },\n",
      "    {\n",
      "      \"value\": \"0.98999700\",\n",
      "      \"n\": 1,\n",
      "      \"scriptPubKey\": {\n",
      "        \"asm\": \"1 b041953c320d5c082a4750666b26449bf1cd09a28845e642540b6233230e5b25\",\n",
      "        \"desc\": \"rawtr(b041953c320d5c082a4750666b26449bf1cd09a28845e642540b6233230e5b25)#5f3m0c4m\",\n",
      "        \"hex\": \"5120b041953c320d5c082a4750666b26449bf1cd09a28845e642540b6233230e5b25\",\n",
      "        \"address\": \"bcrt1pkpqe20pjp4wqs2j82pnxkfjyn0cu6zdz3pz7vsj5pd3rxgcwtvjszn7v7s\",\n",
      "        \"type\": \"witness_v1_taproot\"\n",
      "      }\n",
      "    }\n",
      "  ]\n",
      "}\n",
      "signed tx:  02000000000101385768f39be4300012503d71d4cd1c79bac2f4573701402431bb576abf8b5df50100000000ffffffff0240420f0000000000225120b65a654b30e1b3c32a5d0dcd07cb038eea736ab5efa5a5df6b8a1cf822aecfa6949de60500000000225120b041953c320d5c082a4750666b26449bf1cd09a28845e642540b6233230e5b250140ef1be371df18912b7351a1fc76197580bd1db5e15b17a74f4b79904c95fbcb1b89b5302443cf351cd330b172d5c80201a15bb975e23c299462ed8556f0b69af800000000\n",
      "{\n",
      "  \"txid\": \"b6e55a543b939f2e9140b0d4e7475fecba613144b2a865b741858808529e9df2\",\n",
      "  \"hash\": \"93099e282bf735428d9d9114611ac158c4a4018915a0496e081ffdc81ddcad95\",\n",
      "  \"version\": 2,\n",
      "  \"size\": 205,\n",
      "  \"vsize\": 154,\n",
      "  \"weight\": 616,\n",
      "  \"locktime\": 0,\n",
      "  \"vin\": [\n",
      "    {\n",
      "      \"txid\": \"f55d8bbf6a57bb312440013757f4c2ba791ccdd4713d50120030e49bf3685738\",\n",
      "      \"vout\": 1,\n",
      "      \"scriptSig\": {\n",
      "        \"asm\": \"\",\n",
      "        \"hex\": \"\"\n",
      "      },\n",
      "      \"txinwitness\": [\n",
      "        \"ef1be371df18912b7351a1fc76197580bd1db5e15b17a74f4b79904c95fbcb1b89b5302443cf351cd330b172d5c80201a15bb975e23c299462ed8556f0b69af8\"\n",
      "      ],\n",
      "      \"sequence\": 4294967295\n",
      "    }\n",
      "  ],\n",
      "  \"vout\": [\n",
      "    {\n",
      "      \"value\": \"0.01000000\",\n",
      "      \"n\": 0,\n",
      "      \"scriptPubKey\": {\n",
      "        \"asm\": \"1 b65a654b30e1b3c32a5d0dcd07cb038eea736ab5efa5a5df6b8a1cf822aecfa6\",\n",
      "        \"desc\": \"rawtr(b65a654b30e1b3c32a5d0dcd07cb038eea736ab5efa5a5df6b8a1cf822aecfa6)#yl9yphsa\",\n",
      "        \"hex\": \"5120b65a654b30e1b3c32a5d0dcd07cb038eea736ab5efa5a5df6b8a1cf822aecfa6\",\n",
      "        \"address\": \"bcrt1pkedx2jesuxeux2japhxs0jcr3m48x644a7j6thmt3gw0sg4we7nqfgh55s\",\n",
      "        \"type\": \"witness_v1_taproot\"\n",
      "      }\n",
      "    },\n",
      "    {\n",
      "      \"value\": \"0.98999700\",\n",
      "      \"n\": 1,\n",
      "      \"scriptPubKey\": {\n",
      "        \"asm\": \"1 b041953c320d5c082a4750666b26449bf1cd09a28845e642540b6233230e5b25\",\n",
      "        \"desc\": \"rawtr(b041953c320d5c082a4750666b26449bf1cd09a28845e642540b6233230e5b25)#5f3m0c4m\",\n",
      "        \"hex\": \"5120b041953c320d5c082a4750666b26449bf1cd09a28845e642540b6233230e5b25\",\n",
      "        \"address\": \"bcrt1pkpqe20pjp4wqs2j82pnxkfjyn0cu6zdz3pz7vsj5pd3rxgcwtvjszn7v7s\",\n",
      "        \"type\": \"witness_v1_taproot\"\n",
      "      }\n",
      "    }\n",
      "  ]\n",
      "}\n",
      "funding_channel_txid:  b6e55a543b939f2e9140b0d4e7475fecba613144b2a865b741858808529e9df2\n"
     ]
    }
   ],
   "source": [
    "# run notebook\n",
    "%run \"/home/pins-dev/Projects/Taproot-Lightning-Channels-Workshop/chapter 1 - channel funding transaction/funding-transaction.ipynb\""
   ]
  },
  {
   "cell_type": "markdown",
   "id": "f07e5747",
   "metadata": {},
   "source": [
    "## Legacy cooperative closure\n",
    "\n",
    "Compared to the base segwit v0 channel type, for simple taproot channels, the co-op close transaction now always signals RBF. In other words, the sequence field of the sole input to the cooperative close transaction MUST be less-than-or-equal to 0xfffffffd. This enables a future cooperative closure flow to support increasing the fee of subsequent close offers via RBF.\n",
    "\n",
    "In addition, rather than adopt the existing cooperative closure fee rate \"negotiation\", the responder SHOULD now always accept the offer sent by the initiator. In other words, the cooperative close process now terminates after exactly 1 RTTs: initiator sends sigs with offer, with the responder echo'ing back the same fee rate. This serves to ensure that the co-op close process always terminates deterministically, and also plays nicer with the nonces: only a single message is ever signed by both sides for a coop close workflow.\n",
    "\n",
    "    +-----------+                                        +---------+\n",
    "    |           |--(1)-------- shutdown_nonce ---------->|         |\n",
    "    |           |<-(2)-------- shutdown_nonce -----------|         |\n",
    "    |           |                                        |         |\n",
    "    |   Alice   |--(3)-- closing_signed (partial_sig) -->|   Bob   |\n",
    "    |           |<-(4)-- closing_signed (partial_sig) ---|         |\n",
    "    |           |                                        |         |\n",
    "    |           |                                        |         |\n",
    "    |           |                                        |         |\n",
    "    +-----------+                                        +---------+\n",
    "\n",
    "## Modern RBF-based cooperative close\n",
    "\n",
    "For taproot channels supporting RBF cooperative close, nonces are delivered just-in-time (JIT) with signatures using an asymmetric pattern:\n",
    "\n",
    "Initial Exchange: Nonces are exchanged in shutdown messages\n",
    "\n",
    "Each party sends their \"closee nonce\" - the nonce they'll use when signing as the closee. This nonce is used by the remote party when they act as closer.\n",
    "\n",
    "#### RBF Iterations: Subsequent nonces are delivered with signatures\n",
    "\n",
    "* closing_complete (from closer): uses partial_sig_w_nonce bundles the partial signature with the sender's closer nonce. The bundling is necessary because the closee doesn't know this nonce yet.\n",
    "\n",
    "* closing_sig (from closee): uses partial_sig plus nonce (NextCloseeNonce) field\n",
    "\n",
    "Asymmetric Roles:\n",
    "\n",
    "* Closer: The party sending closing_complete, proposing a new fee\n",
    "* Closee: The party sending closing_sig, accepting the fee proposal\n",
    "\n",
    "Each party alternates between these roles during RBF iterations.\n",
    "\n",
    "    +-----------+                                                +---------+\n",
    "    |           |--(1)------------- shutdown_nonce ------------->|         |\n",
    "    |           |<-(2)------------- shutdown_nonce --------------|         |\n",
    "    |           |                                                |         |\n",
    "    |   Alice   |--(3)- closing_complete (partial_sig_w_nonce) ->|   Bob   |\n",
    "    |           |<-(4)---- closing_sig (partial_sig) (nonce)-----|         |\n",
    "    |           |                                                |         |\n",
    "    |           |<-(5)- closing_complete (partial_sig_w_nonce) ->|         |\n",
    "    |           |--(6)---- closing_sig (partial_sig) (nonce)---->|         |\n",
    "    |           |                                                |         |\n",
    "    +-----------+                                                +---------+\n",
    "\n"
   ]
  },
  {
   "cell_type": "markdown",
   "id": "ac2a9161",
   "metadata": {},
   "source": [
    "## The Unsined Transaxaction"
   ]
  },
  {
   "cell_type": "code",
   "execution_count": 2,
   "id": "6e43a4b0",
   "metadata": {},
   "outputs": [
    {
     "name": "stdout",
     "output_type": "stream",
     "text": [
      "unsigned_tx:  0200000001f29d9e5208888541b765a8b2443161baec5f47e7d4b040912e9f933b545ae5b60000000000fdffffff02f49f070000000000225120aa98c9adc0711168c1652272c54942e301e9fe53ada7cb0598b5a471da8c148c20a10700000000002251208da36ea99cd6a7bf02a099cbc3e35daf1683d56ffceda08538f4424e80502d2700000000\n",
      "{\n",
      "  \"txid\": \"d2f956c422f9b14a7f8429b302407bbdff7126452cb07c43729e4c67b67b03a5\",\n",
      "  \"hash\": \"d2f956c422f9b14a7f8429b302407bbdff7126452cb07c43729e4c67b67b03a5\",\n",
      "  \"version\": 2,\n",
      "  \"size\": 137,\n",
      "  \"vsize\": 137,\n",
      "  \"weight\": 548,\n",
      "  \"locktime\": 0,\n",
      "  \"vin\": [\n",
      "    {\n",
      "      \"txid\": \"b6e55a543b939f2e9140b0d4e7475fecba613144b2a865b741858808529e9df2\",\n",
      "      \"vout\": 0,\n",
      "      \"scriptSig\": {\n",
      "        \"asm\": \"\",\n",
      "        \"hex\": \"\"\n",
      "      },\n",
      "      \"sequence\": 4294967293\n",
      "    }\n",
      "  ],\n",
      "  \"vout\": [\n",
      "    {\n",
      "      \"value\": \"0.00499700\",\n",
      "      \"n\": 0,\n",
      "      \"scriptPubKey\": {\n",
      "        \"asm\": \"1 aa98c9adc0711168c1652272c54942e301e9fe53ada7cb0598b5a471da8c148c\",\n",
      "        \"desc\": \"rawtr(aa98c9adc0711168c1652272c54942e301e9fe53ada7cb0598b5a471da8c148c)#sg9v0lzw\",\n",
      "        \"hex\": \"5120aa98c9adc0711168c1652272c54942e301e9fe53ada7cb0598b5a471da8c148c\",\n",
      "        \"address\": \"bcrt1p42vvntwqwygk3st9yfev2j2zuvq7nljn4knukpvckkj8rk5vzjxqja98td\",\n",
      "        \"type\": \"witness_v1_taproot\"\n",
      "      }\n",
      "    },\n",
      "    {\n",
      "      \"value\": \"0.00500000\",\n",
      "      \"n\": 1,\n",
      "      \"scriptPubKey\": {\n",
      "        \"asm\": \"1 8da36ea99cd6a7bf02a099cbc3e35daf1683d56ffceda08538f4424e80502d27\",\n",
      "        \"desc\": \"rawtr(8da36ea99cd6a7bf02a099cbc3e35daf1683d56ffceda08538f4424e80502d27)#kafepqjt\",\n",
      "        \"hex\": \"51208da36ea99cd6a7bf02a099cbc3e35daf1683d56ffceda08538f4424e80502d27\",\n",
      "        \"address\": \"bcrt1p3k3ka2vu66nm7q4qn89u8c6a4utg84t0lnk6ppfc73pyaqzs95nsrsxy66\",\n",
      "        \"type\": \"witness_v1_taproot\"\n",
      "      }\n",
      "    }\n",
      "  ]\n",
      "}\n"
     ]
    }
   ],
   "source": [
    "# VERSION\n",
    "# version '2' indicates that we may use relative timelocks (BIP68)\n",
    "version = bytes.fromhex(\"0200 0000\")\n",
    "\n",
    "# MARKER (new to segwit)\n",
    "marker = bytes.fromhex(\"00\")\n",
    "\n",
    "# FLAG (new to segwit)\n",
    "flag = bytes.fromhex(\"01\")\n",
    "\n",
    "# INPUTS\n",
    "# We have just 1 input\n",
    "input_count = bytes.fromhex(\"01\")\n",
    "\n",
    "# Convert txid and index to bytes (little endian)\n",
    "txid = (bytes.fromhex(funding_channel_txid))[::-1]\n",
    "funding_channel_index = 0\n",
    "index = funding_channel_index.to_bytes(4, byteorder=\"little\", signed=False)\n",
    "\n",
    "# For the unsigned transaction we use an empty scriptSig\n",
    "scriptsig = bytes.fromhex(\"\")\n",
    "\n",
    "# Use `0xfffffffd` to enable a future rbf cooperative closure round\n",
    "sequence = bytes.fromhex(\"fdff ffff\")\n",
    "\n",
    "inputs = (\n",
    "    txid\n",
    "    + index\n",
    "    + varint_len(scriptsig)\n",
    "    + scriptsig\n",
    "    + sequence\n",
    ")\n",
    "\n",
    "# OUTPUTS\n",
    "# 0x02 for out two outputs\n",
    "output_count = bytes.fromhex(\"02\")\n",
    "\n",
    "# Transaction Fee\n",
    "tx_fee_sat = int(float(\"0.00000300\") * 100000000)\n",
    "\n",
    "# OUTPUT 1 - Back to Alice\n",
    "# 0.005 BTC discounted the fees\n",
    "# In the legacy cooperative closure the channel founder pay the fees\n",
    "# In the new rbf cooperative closure the closer pay the fees\n",
    "output1_value_sat = int(float(\"0.005\") * 100000000) - tx_fee_sat\n",
    "output1_value = output1_value_sat.to_bytes(8, byteorder=\"little\", signed=False)\n",
    "# scriptPubKey P2TR: OP_1 (0x51) + PUSH32 (0x20) + xonly(32B)\n",
    "output1_spk = bytes.fromhex(\"51\") + varint_len(alice_funding_pubkey_b) + alice_funding_pubkey_b\n",
    "\n",
    "# OUTPUT 2 - Back to Bob\n",
    "# 0.005 BTC\n",
    "output2_value_sat = int(float(\"0.005\") * 100000000)\n",
    "output2_value = output2_value_sat.to_bytes(8, byteorder=\"little\", signed=False)\n",
    "# scriptPubKey P2TR: OP_1 (0x51) + PUSH32 (0x20) + xonly(32B)\n",
    "output2_spk = bytes.fromhex(\"51\") + varint_len(bob_funding_pubkey_b) + bob_funding_pubkey_b\n",
    "\n",
    "outputs = (\n",
    "    output1_value\n",
    "    + varint_len(output1_spk)\n",
    "    + output1_spk\n",
    "    + output2_value\n",
    "    + varint_len(output2_spk)\n",
    "    + output2_spk\n",
    ")\n",
    "\n",
    "# LOCKTIME\n",
    "locktime = bytes.fromhex(\"0000 0000\")\n",
    "\n",
    "unsigned_tx = (\n",
    "    version\n",
    "    + input_count\n",
    "    + inputs\n",
    "    + output_count\n",
    "    + outputs\n",
    "    + locktime\n",
    ")\n",
    "print(\"unsigned_tx: \", unsigned_tx.hex())\n",
    "\n",
    "# Decode the unsigned transaction to verify it looks correct\n",
    "decoded = node.decoderawtransaction(unsigned_tx.hex())\n",
    "print(json.dumps(decoded, indent=2, default=str))"
   ]
  },
  {
   "cell_type": "markdown",
   "id": "12bfef47",
   "metadata": {},
   "source": [
    "## The sighash for the key path spend\n",
    "\n",
    "This is the “Schnorr key spend” case: you’re proving knowledge of the (tweaked) internal private key, with no script branch revealed. The message preimage is called msg_digest in [BIP-341](https://github.com/bitcoin/bips/blob/master/bip-0341.mediawiki)."
   ]
  },
  {
   "cell_type": "code",
   "execution_count": 3,
   "id": "4bf95e37",
   "metadata": {},
   "outputs": [],
   "source": [
    "index_of_this_input = bytes.fromhex(\"0000 0000\")\n",
    "\n",
    "# SIGHASH for key path spend\n",
    "# See BIP-341 for details\n",
    "sighash_epoch = bytes.fromhex(\"00\")\n",
    "\n",
    "# Control\n",
    "hash_type = bytes.fromhex(\"00\") # SIGHASH_DEFAULT (a new sighash type meaning implied SIGHASH_ALL)\n",
    "\n",
    "# Transaction data\n",
    "sha_prevouts = sha256(txid + index)\n",
    "\n",
    "input_amounts = channel_value\n",
    "sha_amounts = sha256(input_amounts)\n",
    "\n",
    "# scriptPubKey P2TR: OP_1 (0x51) + PUSH32 (0x20) + xonly(32B)\n",
    "sha_scriptpubkeys = sha256(\n",
    "    varint_len(channel_spk)\n",
    "    + channel_spk\n",
    ")\n",
    "\n",
    "sha_sequences = sha256(sequence)\n",
    "\n",
    "sha_outputs = sha256(outputs) \n",
    "\n",
    "# Data about this input\n",
    "spend_type = bytes.fromhex(\"00\") # no annex present\n",
    "\n",
    "sig_msg = (\n",
    "    sighash_epoch\n",
    "    + hash_type\n",
    "    + version\n",
    "    + locktime\n",
    "    + sha_prevouts\n",
    "    + sha_amounts\n",
    "    + sha_scriptpubkeys\n",
    "    + sha_sequences\n",
    "    + sha_outputs\n",
    "    + spend_type\n",
    "    + index_of_this_input\n",
    ")\n",
    "\n",
    "tag_hash = sha256(\"TapSighash\".encode())\n",
    "sighash = sha256(tag_hash + tag_hash + sig_msg)\n"
   ]
  },
  {
   "cell_type": "markdown",
   "id": "c1e021d2",
   "metadata": {},
   "source": [
    "## Signing the sighash"
   ]
  },
  {
   "cell_type": "code",
   "execution_count": 4,
   "id": "64031eba",
   "metadata": {},
   "outputs": [
    {
     "name": "stdout",
     "output_type": "stream",
     "text": [
      "Alice secnonce: 2cb68ab4665deb808d266580563446575bf303de769cd8452e9c39becb3cb124c67d2da76decc5ae9a534f67c3314bac50129d8512038d84d4b9e0004c4867a30282264267172144b0b6912b788e33c21563cd1194c4c6565dfc04495b98976478 and pubnonce: 02509df95aa8916468a2c0f8bc38c0b2b4b79d2693652a9d746525adf2dcd53209031a3e49cd8764cb079bd577d976d05fef3d7a7dff4e2f92128a495226d80975d8\n",
      "Bob secnonce: ddafc3fecf752c20bd61c8a3956bdc3fbc943384efcebe9734aee97d101d76cd33b82b527472b64897abbdf7d07a9da84b79436c8c02e18deca3906dd093015202ea091f3a152bd83704660fd3ea0f3cc9b057429c6d24e553539214ff8d8cb4f2 and pubnonce: 030a10ee0efde6e1c38fa7a7a5afb1633991b566cdb18cacab98ab884fad83b39d02bad007b67a0589d7c84c19c76dfda8e367ffc00899cc1530cc4d5baae453192e\n",
      "aggregated Schnorr verifies? True\n"
     ]
    }
   ],
   "source": [
    "# Alice and Bob generates its own nonce pair (secnonce, pubnonce)\n",
    "alice_secnonce1, alice_pubnonce1 = nonce_gen(privkey_alice_musig2.get_bytes(), pubkey_alice_musig2, agg_pubkey_tweaked, sighash, None)\n",
    "bob_secnonce1, bob_pubnonce1 = nonce_gen(privkey_bob_musig2.get_bytes(), pubkey_bob_musig2, agg_pubkey_tweaked, sighash, None)\n",
    "\n",
    "print(f\"Alice secnonce: {alice_secnonce1.hex()} and pubnonce: {alice_pubnonce1.hex()}\")\n",
    "print(f\"Bob secnonce: {bob_secnonce1.hex()} and pubnonce: {bob_pubnonce1.hex()}\")\n",
    "\n",
    "# Alice and Bob has exchanged already the pubnonces, so they can create agregate them and create the session context\n",
    "agg_nonce = nonce_agg([alice_pubnonce1, bob_pubnonce1])\n",
    "session = SessionContext(agg_nonce, sorted_pubkeys, [bip86_tweak], [True], sighash)\n",
    "\n",
    "# Alice and Bob produces their partial signatures\n",
    "alice_psig = sign(alice_secnonce1, privkey_alice_musig2.get_bytes(), session)\n",
    "bob_psig = sign(bob_secnonce1, privkey_bob_musig2.get_bytes(), session)\n",
    "\n",
    "# Each side verify the other’s partial signature before proceeding\n",
    "assert partial_sig_verify(alice_psig, [alice_pubnonce1, bob_pubnonce1], sorted_pubkeys, [bip86_tweak], [True], sighash, 0)\n",
    "assert partial_sig_verify(bob_psig, [alice_pubnonce1, bob_pubnonce1], sorted_pubkeys, [bip86_tweak], [True], sighash, 1)\n",
    "\n",
    "# Each side combines partial signatures into the final Schnorr signature\n",
    "agg_sig = partial_sig_agg([alice_psig, bob_psig], session)  # r||s, 64 bytes\n",
    "\n",
    "# Sanity check: verify with BIP340 against the *tweaked* x-only key ---\n",
    "ok = schnorr_verify(sighash, agg_pubkey_tweaked, agg_sig)\n",
    "print(\"aggregated Schnorr verifies?\", ok)\n"
   ]
  },
  {
   "cell_type": "code",
   "execution_count": null,
   "id": "c58cd71f",
   "metadata": {},
   "outputs": [],
   "source": []
  },
  {
   "cell_type": "code",
   "execution_count": null,
   "id": "bc3504fe",
   "metadata": {},
   "outputs": [],
   "source": []
  }
 ],
 "metadata": {
  "kernelspec": {
   "display_name": "Python 3 (ipykernel)",
   "language": "python",
   "name": "python3"
  },
  "language_info": {
   "codemirror_mode": {
    "name": "ipython",
    "version": 3
   },
   "file_extension": ".py",
   "mimetype": "text/x-python",
   "name": "python",
   "nbconvert_exporter": "python",
   "pygments_lexer": "ipython3",
   "version": "3.12.3"
  }
 },
 "nbformat": 4,
 "nbformat_minor": 5
}
